:040000000200743254
:01000B0032C2
:0100130032BA
:01001B0032B2
:03002300020E1AB0
:03002B00020E5072
:100030000000E2FBEAF2802C0000E0FBEAF0802402
:10004000E6B50202EBF62200E2B50202EBF2220074
:10005000E0B50202EBF02230F6E0A88220F5D3EA08
:10006000C6F582228B822230F6E6A88220F5D9805E
:01007000CFC0
:1000CD00753000753400753500753600753700755F
:1000DD003800753900753A00753B00753C00753D6B
:1000ED0000E4F53EF53FF540F560757530F57AF5B0
:1000FD007BF57CF57DF57EF57F78807600788876CA
:04010D00000200717B
:030071000213D89F
:10011100D2AFD2ACD2ADC205C200C202C203D20676
:10012100753340753240753100D207C208C210C222
:1001310009C211C2017537002275C80075CB4C7513
:10014100CA0075CD4C75CC00D2CA22758920758D37
:10015100FD758BFDD28E759850C299C2982275316A
:100161000075324075334075300074E02530400E23
:10017100E5302440F87600E53004F53080EC753048
:1001810000D21122D310AF01C3C0D07E007F00C3C3
:10019100EE957AEF957B50147CFB7D041CBCFF012E
:1001A1001DEC4D70F70EBE00E60F80E3D0D092AF8C
:1001B1002285829910990280FB223000FD300306CE
:1001C10075827F0201B2A9328707BF0D0E75820ABF
:1001D1001201B275820D1201B2D207A932878202D1
:1001E10001B2C2AC3098FD859938C298D2AC227563
:1001F1003000740CB530028012E53090179393F5FE
:10020100821201B2E53004F53080E77530007423C5
:10021100B5300122E53090176A93F5821201B2E5FB
:100221003004F53080E8227530007436B530028034
:1002310012E53090172D93F5821201B2E53004F5E5
:100241003080E7753000227530007407B5300280C8
:1002510012E53090176393F5821201B2E53004F58F
:100261003080E7753000227530007406B5300280A9
:1002710012E53090178D93F5821201B2E53004F545
:100281003080E775300022753000E57A457B7015C6
:100291007582301201B275820D1201B275820A1295
:1002A10001B2D20422E57A457B603AE5302475F942
:1002B10075190A751A00857A82857B83C001121629
:1002C100DCAE82D00174302EF775190A751A0085DB
:1002D1007A82857B8312169685827A85837BE530C7
:1002E10004F53080C08579821201B28578821201CD
:1002F100B28577821201B28576821201B28575824A
:100301001201B275820D1201B275820A1201B2D2C6
:10031100047575007576007577007578007579003C
:1003210022E57A457B602DAF7A74805FF538E53838
:10033100235401F538E53860087582311201B28025
:10034100067582301201B2E57A25E0F57AE57B3354
:10035100F57B80CD75820D1201B275820A0201B260
:1003610075821B1201B27582630201B2753000748D
:10037100C525304012E5309017B093F5821201B2D5
:10038100E53004F53080E875300075821B1201B24A
:1003910075825B1201B27582331201B27582351218
:1003A10001B275826D0201B275300074C72530400B
:1003B10012E5309017EB93F5821201B2E53004F5A6
:1003C1003080E87530002275300074DD2530401230
:1003D100E53090182493F5821201B2E53004F5302E
:1003E10080E875300022853419751A0090003212A8
:1003F10016BF85823E85833F7582441201B27582A4
:10040100751201B27582721201B27582611201B266
:100411007582741201B27582691201B275826F120E
:1004210001B275826E1201B27582281201B2758213
:100431006D1201B27582731201B27582291201B275
:100441007582201201B2E53E453F702675823C124D
:1004510001B27582201201B27582351201B2758224
:10046100301201B275820D1201B275820A1201B207
:100471008009853E7A853F7B12028875821B1201B5
:10048100B275825B1201B27582301201B275826D52
:100491000201B2AF8275300074F62530401DE5309F
:1004A10025E02460F9E7B5070BE53025E024600479
:1004B100F9878222E53004F53080DDD202753702FA
:1004C1007582FF22AF8275300074F62530401BE53E
:1004D1003025E02460F9E7700AE53025E02460F872
:1004E100A60722E53004F53080DF753000D20275B1
:1004F100370322AF8275300074F625304016E5309F
:1005010025E02460F9E7B5070485308222E530044F
:10051100F53080E4D2027537027582FF221204F4AD
:1005210085823B30020122E53B25E0246004F8A6E8
:100531001822AF8275300074F625304025E530254C
:10054100E02460F9E7B50713E53025E02460F8768B
:1005510000E53025E0246004F87600E53004F5304C
:1005610080D5D20275370222E5312440F98707BFD1
:1005710020028008BF7F0A120EC280EC120EC280D8
:10058100E7753900E5312440F98707BF200280264D
:10059100E5312440F98707BF0D02801AE53975F06E
:1005A1000AA4F539E5312440F9E724D0AE392EF516
:1005B10039120EC280CE85398222E5312440F98775
:1005C10007BF20028008BF7F0A120EC280EC120E04
:1005D100C280E7E4F57AF57BE5312440F98707BF6E
:1005E100200122E5312440F98707BF0D0122857AD8
:1005F10019857B1A90000A1216BF85827A85837B42
:10060100E5312440F987077E00EF24D0FFEE34FF67
:10061100FEEF257AF57AEE357BF57B120EC280B8B6
:10062100E53C2488F8A63D120ECB1205698582357A
:10063100E53C2488F8A635020ECB12056985823582
:10064100120569858236E53C2488F8A63D120ECB59
:10065100E53C2488F8A635120ECBE53C2488F8A6A3
:1006610036020ECB120569858235120569858236FF
:1006710012056985827EE53C2488F8A63D120ECBE1
:10068100E53C2488F8A635120ECBE53C2488F8A673
:1006910036120ECBE53C2488F8A67E020ECB12055D
:1006A1006985823512056985823612056985827EE2
:1006B10012056985827FE53C2488F8A63D120ECBA0
:1006C100E53C2488F8A635120ECBE53C2488F8A633
:1006D10036120ECBE53C2488F8A67E120ECBE53C03
:1006E1002488F8A67F020ECBE53C2488F9873D12C9
:1006F1000ECBE53C2488F98735120ECBE53C2488E6
:10070100F98736120ECBE53C2488F9877E120ECB91
:10071100E53C2488F9877F753800753900AF35BF0E
:100721005802801CBFDF02800ABFFC028023BFFD8C
:100731004A802F853638857E39E4F57AF57B80400D
:10074100853638753900853E7A853F7B857E7F8089
:100751002F853638753900857C7A857D7B857E7F4E
:10076100801E853682120494858238857E82120429
:1007710094858239E4F57AF57B8005D202753707D5
:10078100AF3DBF10028045BF60028025BF7E0302DE
:100791000854BFB8030208AFBFC2028058BFC403E8
:1007A10002088ABFD0028076BFD8030208D40208AB
:1007B100F9AE387F00AC397D00EC2EFEED3FFFEE47
:1007C100257AF57AEF357BF57B0208FEE539701164
:1007D100AF38FEE57AC39FF57AE57B9EF57B02088B
:1007E100FEAE387F00AC397D00EEC39CF57AEF9DFB
:1007F100F57B0208FEE5397017853819F51A857AF7
:1008010082857B831216BF85827A85837B0208FEEF
:100811008538F0E539A4F57A85F07B0208FEE538E4
:100821007008D2027537010208FEE5397017853864
:1008310019F51A857A82857B8312169685827A85C7
:10084100837B0208FE8539F0E53884F57A757B00F3
:100851000208FEE5387008D2027537010208FEE58C
:10086100397017853819F51A857A82857B831216B6
:10087100DC85827A85837B0208FE8539F0E5388440
:10088100AFF08F7A757B008074E5387007D20275FE
:1008910037078069E539700BAE38FFEE527AEF52B7
:1008A1007B805AE5395538F57A757B00804FE538FC
:1008B1007007D2027537078044E539700BAE38FFF7
:1008C100EE427AEF427B8035E5394538F57A757B22
:1008D10000802AE5387007D202753707801FE53995
:1008E100700BAE38FFEE527AEF527B8010E539552E
:1008F10038F57A757B008005D202753707AF7FBF67
:1009010058028005BFFC108007857A3E857B3F2217
:10091100857A7C857B7D22857A38853818857F822A
:1009210002051EE53C2488F9873D120ECBE53C24E7
:1009310088F98735120ECBE53C2488F98736AF3D1F
:10094100BF1302804DBFC5030209D5BFF202800368
:10095100020A1974FDB53517853682120494858211
:1009610038E538F4F53885381885368202051E7465
:1009710058B5350BE53EF4F53EE53FF4F53F2274FD
:10098100FCB53502800122E57CF4F57CE57DF4F5CA
:100991007D2274FDB535178536821204948582381F
:1009A100E53804F53885381885368202051E7458F5
:1009B100B5350EAE3EAF3F74012EF53EE43FF53F37
:1009C1002274FCB53557AE7CAF7D74012EF57CE405
:1009D1003FF57D2274FDB535178536821204948565
:1009E1008238E53814F53885381885368202051EB7
:1009F1007458B5350FAE3EAF3FEE24FFF53EEF34F0
:100A0100FFF53F2274FCB53514AE7CAF7DEE24FFBB
:100A1100F57CEF34FFF57D22D20275370722E53CE4
:100A21002488F8A63D020ECBC210D2040203E7D2FD
:100A310008C21075300074B02530400EE5302488AE
:100A4100F87600E53004F53080EC75300002036D76
:100A5100300107C208D2100203C82212056985823B
:100A61003585357A757B00020288C208D2010203FE
:100A7100A975300074B02530400EE5302488F87631
:100A810000E53004F53080EC753000C20122120E11
:100A9100CBE53C2488F98735120ECBE53C2488F957
:100AA1008736AF35BF58028035BFFC5E758278123C
:100AB10001B27582571201B275824F1201B275826D
:100AC100521201B27582441201B275823A1201B218
:100AD1007582201201B2857C7A857D7B8039758291
:100AE100761201B27582411201B27582431201B2CE
:100AF1007582431201B275823A1201B275822012D7
:100B010001B2853E7A853F7B800D85358212049442
:100B1100AF828F7A757B00AF36BF0E02801EBFCECB
:100B210002800DBFD0028005BFDE27800602028849
:100B3100020322857A388538820201B2AE7AAF7B10
:100B4100C007C006120288D006D0078E7A8F7B02BA
:100B51000322D202753707221205BBE53C2488F82F
:100B6100A63D120ECBE53C2488F9AE7AE57B7F00E9
:100B71008E7A8F7BA706857B7A757B00120ECBE57B
:100B81003C2488F9AE7AE57B7F008E7A8F7BA706BD
:100B9100020ECB120ECBE53C2488F987078F7A75BC
:100BA1007B00120ECB857A7B757A00E53C2488F9AF
:100BB10087077E00EF427AEE427B857B7A757B0068
:100BC100020185120ECBE53C2488F98735853582F3
:100BD1000204C5120ECBE53C2488F98735120ECBF1
:100BE100E53C2488F9873685361885358202051E4D
:100BF100120ECBE53C2488F98735120ECBE53C2457
:100C010088F98736120ECBE53C2488F9877E120ECF
:100C1100CBE53C2488F9877FAF35BF58028017BFE9
:100C2100FC02801ABFFD1F853682120494AF828FA9
:100C31007A757B008016853E7A853F7B800E857CA8
:100C41007A857D7B8006D20275370722857EF00585
:100C5100F0800BE57A25E0F57AE57B33F57BD5F07D
:100C6100F2AF7FBF58028005BFFC108007857A3E36
:100C7100857B3F22857A7C857B7D22857A38853804
:100C810018857F8212051E22120ECBE53C2488F9BD
:100C91008735120ECBE53C2488F98736120ECBE559
:100CA1003C2488F9877E120ECBE53C2488F9877FA6
:100CB100AF35BF58028017BFFC028020BFFD2B85D6
:100CC1003682120494AF828F7A757B008022853E32
:100CD1007A853F7B857E7F85367E8014857C7A850B
:100CE1007D7B857E7F85367E8006D2027537072221
:100CF100857EF005F0800BC3E57B13F57BE57A1368
:100D0100F57AD5F0F2AF7FBF58028005BFFC1080A5
:100D110007857A3E857B3F22857A7C857B7D22858E
:100D21007A38853818857F8212051E22120ECBE58E
:100D31003C2488F98735120ECBE53C2488F98736A7
:100D4100120ECBE53C2488F9877E7482B53539AF24
:100D510036BF8802800FBF8902800FBF8A02800FD1
:100D6100BF8B16800F85803880158590388010855F
:100D7100A038800B85B0388006D2027537022285F3
:100D81003818857E8202051E7421B5353A857E822A
:100D9100120494858238AF36BF8802800FBF890262
:100DA100800FBF8A02800FBF8B16800F853880802D
:100DB1001585389080108538A0800B8538B0800665
:100DC100D2027537022222AF36BF8802800FBF8957
:100DD10002800EBF8A02800DBF8B12800C857E803F
:100DE10022857E9022857EA022857EB022D2027548
:100DF100370222120ECBE53C2488F98735120ECB3F
:100E0100E53C2488F9873685358212049485823839
:100E110085381885368202051EC0E0C0D075D0081D
:100E2100309827AF99BF7F15C374409533500A207E
:100E310007071533E533F87600D2038009E533F867
:100E4100A699C2030533D200C298D0D0D0E032C0F7
:100E5100E0E53404F534D0E032C2ACC2AF753D00F8
:100E610075300074E02530400EE5302440F87600FE
:100E7100E53004F53080EC753000753500753600CD
:100E8100753000C20075334075324075310030084D
:100E91001E75821B1201B275825B1201B27582331B
:100EA1001201B27582351201B275826D1201B2D290
:100EB100AFD2AC22A9328707BF0D03D20522C205EA
:100EC10022E53104F53153311F22E53C04F53C5351
:100ED1003C3F2220112D3003092007021532C203A5
:100EE10080040532C207C3E532944050020532C383
:100EF100745F95325003753240C3745F953350036C
:100F0100753340C21122020361C2AF75A61E75A6D8
:100F1100E180FE300405120268C20430025F120152
:100F2100F0C2ACC2AF753D0075300074E0253040B1
:100F31000EE5302440F87600E53004F53080EC759C
:100F41003000753500753600753000C200753340CC
:100F510075324075310030081E75821B1201B27561
:100F6100825B1201B27582331201B27582351201B0
:100F7100B275826D1201B2D2AFD2ACC202C20022EE
:100F8100C20522300513C2AC12104D120FAD121161
:100F91007E753D0012015FD2AC221203611202285C
:100FA1000202487581D712011102014C2009012268
:100FB10030080122AF3DBF000302104ABF17028073
:100FC10068BF7002801EBF7502802FBFAA02800A0F
:100FD100BFB8028048BFC36F800FC2AF75A61E7530
:100FE100A6E180FE12036180601205698582358564
:100FF100357A757B00120288804FD208C210753095
:101001000074B02530400EE5302488F87600E530D4
:1010110004F53080EC75300012036D802C3001290D
:10102100C208D2101203C8802075300074B0253078
:10103100400EE5302488F87600E53004F53080EC88
:10104100753000C2018002D202C2092212056985EF
:10105100823D200803D20922AF3DBF000122BF100B
:10106100030210EBBF13030210EEBF14030210EBD7
:10107100BF15030210EEBF2503021146BF3B030259
:101081001146BF60028063BF64028064BF65028055
:1010910062BF7D028057BF7E02804FBF8402804DB8
:1010A100BF92028048BF96028050BFA60302116B17
:1010B100BFA802803BBFB0028033BFB802802BBF04
:1010C100C2028026BFC4028021BFC502801FBFD0DB
:1010D100028017BFD4028012BFD802800DBFF20276
:1010E100800BBFFA02800902117B02069F02063BB8
:1010F100020665C208D2010203A91205BBE53C2420
:1011010088F8A63DE53C04F53C533C3FE53C24888A
:10111100F9AE7AE57B7F008E7A8F7BA706857B7A95
:10112100757B00E53C04F53C533C3FE53C2488F9E4
:10113100AE7AE57B7F008E7A8F7BA706E53C04F5CE
:101141003C533C3F22E53C2488F8A63DE53C04F5B0
:101151003C533C3F120569858235E53C2488F8A65D
:1011610035E53C04F53C533C3F22E53C2488F8A698
:101171003DE53C04F53C533C3F22D20222201001C4
:1011810022753C00C2CA75340012013A20100302D4
:1011910013D2E53C2488F9873DAF3DBF1002806A38
:1011A100BF1302806BBF140302133CBF250302135C
:1011B10042BF60028054BF6403021382BF7D0302F9
:1011C1001387BF7E028043BF8402804ABF96030219
:1011D10012F9BFA6030213B9BFB003021359BFB876
:1011E100028027BFC2028022BFC402801DBFC50288
:1011F100801EBFD0028013BFD403021336BFD802B2
:101201008008BFF20280090213C01206E90213C06E
:101211001209240213C0E53C04F53C533C3FE53C74
:101221002488F98735E53C04F53C533C3FE53C24F3
:1012310088F98736AF35BF58028035BFFC5E7582AD
:10124100781201B27582571201B275824F1201B242
:101251007582521201B27582441201B275823A123C
:1012610001B27582201201B2857C7A857D7B80393D
:101271007582761201B27582411201B275824312F2
:1012810001B27582431201B275823A1201B27582BE
:10129100201201B2853E7A853F7B800D8535821211
:1012A1000494AF828F7A757B00AF36BF0E02802720
:1012B100BFCE028010BFD0028005BFDE33800C128A
:1012C10002880213C01203220213C0857A388538BE
:1012D100821201B20213C0AE7AAF7BC007C0061200
:1012E1000288D006D0078E7A8F7B1203220213C0A8
:1012F100D2027537070213C0E53C04F53C533C3F6D
:10130100E53C2488F987078F7A757B00E53C04F575
:101311003C533C3F857A7B757A00E53C2488F9870C
:10132100077E00EF427AEE427B857B7A757B001265
:1013310001850213C0120C890213C0120BF10213B2
:10134100C0E53C04F53C533C3FE53C2488F9873536
:101351008535821204C58067E53C04F53C533C3F6A
:10136100E53C2488F98735E53C04F53C533C3FE5F1
:101371003C2488F9873685361885358212051E800A
:101381003E120D2D8039E53C04F53C533C3FE53CD4
:101391002488F98735E53C04F53C533C3FE53C2482
:1013A10088F9873685358212049485823885381804
:1013B10085368212051E8007C210D2041203E7305F
:1013C1000204C210C204E53C04F53C533C3F021147
:1013D1008DC2CA753C00227581D712011112014CD0
:1013E1001203611202281202481201BBA9328707B7
:1013F100BF0D04D2058002C2052005030215F3C208
:10140100AC12056985823D200805D209021545AF58
:101411003DBF0003021545BF10030214A4BF13030F
:101421000214AABF14030214A4BF15030214AABF15
:10143100250302150CBF3B0302150CBF600280633C
:10144100BF6402806ABF6502806BBF7D02805ABFA4
:101451007E02804FBF84028050BF9202804BBF96B4
:1014610002805CBFA603021532BFA8028041BFB053
:10147100028036BFB802802BBFC2028026BFC402E1
:101481008021BFC5028022BFD0028017BFD4028055
:1014910012BFD802800DBFF202800EBFFA02800F88
:1014A10002154312069F02154512063B021545120D
:1014B1000665021545C208D2011203A9021545129B
:1014C10005BBE53C2488F8A63DE53C04F53C533CCE
:1014D1003FE53C2488F9AE7AE57B7F008E7A8F7BED
:1014E100A706857B7A757B00E53C04F53C533C3FC0
:1014F100E53C2488F9AE7AE57B7F008E7A8F7BA765
:1015010006E53C04F53C533C3F8039E53C2488F832
:10151100A63DE53C04F53C533C3F12056985823507
:10152100E53C2488F8A635E53C04F53C533C3F8076
:1015310013E53C2488F8A63DE53C04F53C533C3FCB
:101541008002D2022009030215E83008030215E8DF
:10155100AF3DBF00030215E6BF17028068BF7002EE
:10156100801EBF7502802FBFAA02800ABFB8028009
:1015710048BFC36F800FC2AF75A61E75A6E180FE7E
:10158100120361806012056985823585357A757B24
:1015910000120288804FD208C21075300074B02545
:1015A10030400EE5302488F87600E53004F53080CF
:1015B100EC75300012036D802C300129C208D21065
:1015C1001203C8802075300074B02530400EE5301C
:1015D1002488F87600E53004F53080EC753000C2DF
:1015E100018002D202C20912117E753D0012015F13
:1015F100D2AC20112D3003092007021532C203801D
:10160100040532C207C3E532944050020532C37467
:101611005F95325003753240C3745F953350037543
:101621003340C211300405120268C20430025F1255
:1016310001F0C2ACC2AF753D0075300074E02530D9
:10164100400EE5302440F87600E53004F53080ECBA
:10165100753000753500753600753000C200753380
:101661004075324075310030081E75821B1201B27F
:1016710075825B1201B27582331201B27582351225
:1016810001B275826D1201B2D2AFD2ACC202C200F8
:05169100C2050213EA8E
:10172D004D6963726F205669727475616C2D52200C
:10173D00436F707972696768742032303236204297
:10174D006169626861762042686174746163687270
:10175D0079610D0A000052656164790D0A496E7652
:10176D00616C6964206F7220496E636F6D706C657A
:10177D00746520436F6D6D616E640D0A1B5B306D7A
:10178D00446F6E650D0A1B5B33316D4552524F52DE
:10179D00212050726F6772616D20457261736564AF
:1017AD000D0A001B5B33326D4C6976652070726FCC
:1017BD006772616D6D696E6720656E61626C6564DF
:1017CD002E0D0A456E74657220636F6465206C6919
:1017DD006E65206279206C696E652E0D0A001B5BAB
:1017ED00306D50726F6772616D206C6F61646564EE
:1017FD0020696E206D656D6F72792C207573652073
:10180D002772756E2720666F722065786563757413
:10181D00696F6E2E0D0A001B5B33336D4578656362
:10182D007574696E672073637269707420617420BA
:0A183D0072756E74696D650D0A0086
:101696007A10E4FBFCE58225E0F582E58333F583E9
:1016A600EB33FBEC33FCEB9519F5F0EC951A4006A1
:0916B600FCABF0438201DADD22F5
:0600A300E478FFF6D8FD31
:100081007900E94400601B7A00901847780175A057
:1000910000E493F2A308B8000205A0D9F4DAF275DE
:0200A100A0FFBE
:1016BF00E5828519F0A4C582C0F0851AF0A4D0F098
:1016CF0025F0C5838519F0A42583F58322E51945F7
:1016DF001A60467A01E51925E0F519E51A3340122B
:1016EF00F51AE5829519E583951A40030A80E6C33A
:1016FF00E51A13F51AE51913F519C3E5829519F5CE
:10170F00F0E583951A4005F58385F082C3E51A133A
:0A171F00F51AE51913F519DAE122B5
:1000A9007800E84400600A790175A000E4F309D8F2
:1000B900FC7800E84400600C7900900001E4F0A3AA
:0400C900D8FCD9FA8C
:0D0074007581D7121729E582600302007123
:0417290075820022A3
:00000001FF
