:040000000200743254
:01000B0032C2
:0100130032BA
:01001B0032B2
:030023000201A631
:03002B000201C40B
:200030000000E2FBEAF2802C0000E0FBEAF08024E6B50202EBF62200E2B50202EBF22200B6
:20005000E0B50202EBF02230F6E0A88220F5D3EAC6F582228B822230F6E6A88220F5D980C6
:01007000CFC0
:2000CD00753000753100753400753500753600753700753800753900753A00753C00753DB1
:0D00ED0000753E00753F0075400002007177
:030071000201CEBB
:2000FA00D2AFD2ACD2ADC2007533407532402275C80075CB4C75CA0075CD4C75CC00D2CA42
:20011A0022758920758DFD758BFDD28E759850C2992285829910990280FB223000FDA9325F
:20013A008707BF0D0C75820A12012C75820D12012CA932878212012C0532C2002222222218
:20015A007538007436B538028012E5389001E993F58212012CE53804F53880E77538002249
:20017A007538007407B538028012E53890021F93F58212012CE53804F53880E77538002221
:20019A0075821B12012C75826302012CC0E0C000C0D075D00030980BE533F8A699D200053D
:2001BA0033C298D0D0D000D0E032C0E0E53404F534D0E0327581601200FA12011B12019A41
:0B01DA0012015A12017A12013580FB5D
:2001E9004D6963726F205669727475616C2D5220436F707972696768742032303236204251
:1D0209006169626861762042686174746163687279610D0A000052454144590D0A3F
:0600A300E478FFF6D8FD31
:200081007900E94400601B7A00900226780175A000E493F2A308B8000205A0D9F4DAF275FD
:0200A100A0FFBE
:2000A9007800E84400600A790175A000E4F309D8FC7800E84400600C7900900001E4F0A355
:0400C900D8FCD9FA8C
:0D00740075815F1201E5E5826003020071F5
:0401E50075820022FD
:00000001FF
