:040000000200743254
:01000B0032C2
:0100130032BA
:01001B0032B2
:0300230002098847
:03002B000209BE09
:100030000000E2FBEAF2802C0000E0FBEAF0802402
:10004000E6B50202EBF62200E2B50202EBF2220074
:10005000E0B50202EBF02230F6E0A88220F5D3EA08
:10006000C6F582228B822230F6E6A88220F5D9805E
:01007000CFC0
:1000CD00753000753400753500753600753700755F
:1000DD003800753900753A00753C00753D00E4F542
:1000ED003EF53FF54078F8763078FDF608F678FF66
:0500FD00760002007115
:030071000209C8B9
:10010200D2AFD2ACD2ADC200C201C202C2037533B9
:100112004075324075310022C2ACC2AF75300074F6
:10012200E02530400EE5302440F87600E53004F555
:100132003080EC753D00753500753600753000C2B3
:1001420001753340753240753100C202D2AFD2AC74
:100152002275C80075CB4C75CA0075CD4C75CC00A4
:10016200D2CA22758920758DFD758BFDD28E759848
:1001720050C2992285829910990280FB223000FD9B
:1001820030030675827F020176A9328707BF0D0C04
:1001920075820A12017675820D120176A932878262
:1001A200020176E5312440F98707BF2002800ABFA9
:1001B2007F0EE53104F53180EAE53104F53180E363
:1001C200753800E5312440F98707BF20028050E5E9
:1001D200312440F98707BF0D028044E5312440F9FC
:1001E2008739E53104F53153311FE5312440F98770
:1001F2000753073FEF6239E53104F53153311FE50B
:1002020039C313FFE5312440F9E76FF53985393DEC
:10021200E53804F538E53104F53153311F80A4E5A2
:100222003824FE5003753D0122C2AC3098FD8599F9
:1002320038C298D2AC22753000740CB530028012EC
:10024200E530900B7F93F582120176E53004F530AC
:1002520080E77530007423B530028012E530900BD0
:100262003E93F582120176E53004F53080E7753071
:10027200007446B5300122E530900BBE93F5821230
:100282000176E53004F53080E8227538007436B521
:1002920038028012E538900B0193F582120176E55F
:1002A2003804F53880E7753800227538007407B5D0
:1002B20038028012E538900B3793F582120176E509
:1002C2003804F53880E775380022753000740FB5B0
:1002D200300122E530900B6B93F582120176E53006
:1002E20004F53080E87530007405B5300122E53040
:1002F200900B7A93F582120176E53004F53080E8AE
:1003020078FDA63E08A63F75300078FDE6084670E7
:100312002175823012017675823012017675823033
:1003220012017675820D12017675820A120176D259
:10033200042278FDE608466041E53024F8F97508A4
:100342000A75090078FD8682088683C001120AB008
:10035200AE82D00174302EF775080A75090078FD57
:100362008682088683120A6AE5828583F078FDF622
:1003720008A6F0E53004F53080B878FC86821201D8
:100382007678FB868212017678FA86821201767876
:10039200F9868212017678F8868212017675820DCC
:1003A20012017675820A120176D20478F876007804
:1003B200F9760078FA760078FB760078FC760022EF
:1003C20075821B12017675826302017675821B1299
:1003D200017675825B120176758232120176758220
:1003E2004A12017675821B12017675825B120176C2
:1003F200758248020176E5312440F98707BF200261
:10040200800ABF7F0EE53104F53180EAE53104F55B
:100412003180E3753900E5312440F98707BF2002B6
:10042200802BE5312440F98707BF0D02801FE53993
:1004320075F00AA4F539E5312440F9E724D0AE3944
:100442002EF539E53104F53153311F80C9853982E2
:1004520022C2AF75A61E75A6E11202CC80FE7535CA
:10046200001203F885823574F825355003D2022232
:1004720075821B12017675825B12017675823312C8
:100482000176AF3574302FF58212017675826D12C6
:100492000176D2042275300010010280187419B559
:1004A200300122E530900BA493F582120176E530FB
:1004B20004F53080E8D2017418B5300122E530909D
:1004C2000B8B93F582120176E53004F53080E81249
:1004D20003F88582351203F8858236E535700AE520
:1004E200367006F53EF53F8027E5356013E5367038
:1004F2000FAF35FEEF253EF53EEE353FF53F80105E
:10050200AE357F00AC367D00EC2EF53EED3FF53F7B
:100512000203021203F88582351203F8858236E55A
:1005220035700AE5367006F53EF53F8029E53560FF
:1005320014E5367010AF35FEE53EC39FF53EE53F4C
:100542009EF53F8011AE357F00AC367D00EEC39C38
:10055200F53EEF9DF53F0203021203F88582351244
:1005620003F8858236E5357007E5367003D202223C
:10057200E535601AE5367016853508F509853E823F
:10058200853F83120A6A85823E85833F800B8536CA
:10059200F0E53584F53E753F000203021203F8854B
:1005A20082351203F8858236E535601AE536701613
:1005B200853508F509853E82853F83120A93858237
:1005C2003E85833F800B8535F0E536A4F53E85F008
:1005D2003F020302E5312440F98707BF2002800A67
:1005E200BF7F0EE53104F53180EAE53104F5318053
:1005F200E3E4F53EF53FE5312440F98707BF2002E9
:100602008043E5312440F98707BF0D028037853EDC
:1006120008853F0990000A120A9385823E85833F2E
:10062200E5312440F987077E00EF24D0FFEE34FF46
:10063200FEEF253EF53EEE353FF53FE53104F5315F
:1006420053311F80B1D204221203F885823578FF1C
:10065200A635D20422853E3A853F3C78FF863E7518
:100662003F00120302AF3C7E00AC3A7D00EC2EF557
:100672003EED3FF53F221203F88582351203F885DD
:100682008236E5357007E5367003D20222E5356021
:100692001AE5367016853508F509853E82853F8351
:1006A200120AB085823E85833F800D8536F0E5359E
:1006B20084AFF08F3E753F00020302AF3DBF0001E1
:1006C20022BF4003020866BF41030207DDBF4503A4
:1006D200020940BF4603020799BF4B0302089EBFAF
:1006E2004D03020302BF4F0302091FBF500302085A
:1006F20023BF5502802ABF5B03020912BF63028037
:1007020022BF66028057BF6B02804FBF7202800316
:10071200020985C2AF75A61E75A6E11202CC80FE43
:100722000203CE7535001203F885823574F825353B
:100732005003D2022275821B12017675825B12016E
:1007420076758233120176AF3574302FF58212013D
:100752007675826D120176D204220203C2753000D0
:1007620010010280187419B5300122E530900BA4F3
:1007720093F582120176E53004F53080E8D20174F7
:1007820018B5300122E530900B8B93F58212017679
:10079200E53004F53080E81203F88582351203F85B
:1007A200858236E535700AE5367006F53EF53F80FE
:1007B20027E5356013E536700FAF35FEEF253EF5C0
:1007C2003EEE353FF53F8010AE357F00AC367D0002
:1007D200EC2EF53EED3FF53F0203021203F885824F
:1007E200351203F8858236E535700AE5367006F56E
:1007F2003EF53F8029E5356014E5367010AF35FED1
:10080200E53EC39FF53EE53F9EF53F8011AE357F45
:1008120000AC367D00EEC39CF53EEF9DF53F020332
:10082200021203F88582351203F8858236E53570A7
:1008320007E5367003D20222E535601AE5367016F6
:10084200853508F509853E82853F83120A6A8582CD
:100852003E85833F800B8536F0E53584F53E753F56
:10086200000203021203F88582351203F8858236EC
:10087200E535601AE5367016853508F509853E823C
:10088200853F83120A9385823E85833F800B85359F
:10089200F0E536A4F53E85F03F020302E53124403F
:1008A200F98707BF2002800ABF7F0EE53104F531C8
:1008B20080EAE53104F53180E3E4F53EF53FE531C8
:1008C2002440F98707BF20028043E5312440F9879D
:1008D20007BF0D028037853E08853F0990000A1246
:1008E2000A9385823E85833FE5312440F987077E5E
:1008F20000EF24D0FFEE34FFFEEF253EF53EEE354D
:100902003FF53FE53104F53153311F80B1D2042266
:100912001203F885823578FFA635D20422853E3A45
:10092200853F3C78FF863E753F00120302AF3C7E56
:1009320000AC3A7D00EC2EF53EED3FF53F2212036E
:10094200F88582351203F8858236E5357007E5367B
:100952007003D20222E535601AE536701685350835
:10096200F509853E82853F83120AB085823E8583E2
:100972003F800D8536F0E53584AFF08F3E753F0040
:10098200020302D20222C0E0C007C000C0D075D06C
:100992000030981FAF99BF7F0DC37440953350024A
:1009A2001533D2038009E533F8A699C2030533D281
:1009B20000C298D0D0D000D007D0E032C0E0E534F9
:1009C20004F534D0E0327581601201021201651221
:1009D20003C212028C1202AC12017FA9328707BF36
:1009E2000D12C2AC1201A51206BDE53104F5317536
:1009F2003D00D2AC30030DC374409532500615321F
:100A0200C203800205323004051202E7C20430023A
:100A12003B120238C2ACC2AF75300074E0253040E0
:100A22000EE5302440F87600E53004F53080EC75B0
:100A32003D00753500753600753000C201753340D2
:100A4200753240753100C202D2AFD2ACC3745F9529
:100A5200335003753340C3745F953250037532408F
:080A620053311FC2000209DA42
:100B01004D6963726F205669727475616C2D522044
:100B1100436F7079726967687420323032362042CF
:100B210061696268617620426861747461636872A8
:100B310079610D0A000052454144590D0A496E760A
:100B4100616C6964206F7220496E636F6D706C65B2
:100B5100746520436F6D6D616E640D0A1B5B306DB2
:100B61003031323334353637383950726F6365730B
:100B710073696E672E2E2E0D0A4F4B210D0A1B5BDA
:100B810033316D4552524F522120496E66696E696B
:100B91007465204C6F6F707320456E61626C656483
:100BA1000D0A00496E66696E697465204C6F6F703D
:100BB100732044697361626C65640D0A0042756655
:100BC10066657273207765726520636C6561726515
:100BD100642E204D616368696E652073746174656C
:100BE10020616E642070726576696F75732072651D
:100BF10073756C74732077657265207361766564B3
:040C0100210D0A00B7
:100A6A007A10E4FBFCE58225E0F582E58333F58321
:100A7A00EB33FBEC33FCEB9508F5F0EC95094006FB
:090A8A00FCABF0438201DADD222D
:0600A300E478FFF6D8FD31
:100081007900E94400601B7A00900C05780175A0A5
:1000910000E493F2A308B8000205A0D9F4DAF275DE
:0200A100A0FFBE
:100A9300E5828508F0A4C582C0F08509F0A4D0F0F2
:100AA30025F0C5838508F0A42583F58322E5084551
:100AB3000960467A01E50825E0F508E509334012A7
:100AC300F509E5829508E583950940030A80E6C3A5
:100AD300E50913F509E50813F508C3E5829508F55B
:100AE300F0E58395094005F58385F082C3E5091395
:0A0AF300F509E50813F508DAE12221
:1000A9007800E84400600A790175A000E4F309D8F2
:1000B900FC7800E84400600C7900900001E4F0A3AA
:0400C900D8FCD9FA8C
:0D00740075815F120AFDE5826003020071D4
:040AFD0075820022DC
:00000001FF
