:0400000002006C325C
:01000B0032C2
:0100130032BA
:01001B0032B2
:0300230002014592
:100028000000E2FBEAF2802C0000E0FBEAF080240A
:10003800E6B50202EBF62200E2B50202EBF222007C
:10004800E0B50202EBF02230F6E0A88220F5D3EA10
:10005800C6F582228B822230F6E6A88220F5D98066
:01006800CFC8
:0600C50075400002006915
:0300690002016829
:1000CB00D2AF758160753000753100753240753374
:1000DB0040753400753500753600753700C20075F4
:1000EB003900753A00753C00753D00753E00753F53
:1000FB00002222758920758DFD758BFDD28EC299DC
:10010B00C298759850D2AC22AF822000FDD2008FDE
:10011B0099222222222275824412011375826512C2
:10012B0001137582621201137582751201137582A8
:10013B006712011375820A020113C0E0C000C0D020
:10014B0075D000309809E533F8A6990533C298109D
:10015B0099028002C200D0D0D000D0E0321200CB86
:0B016B001200FE75824112011380F8A3
:06009B00E478FFF6D8FD39
:100079007900E94400601B7A0090017A780175A043
:1000890000E493F2A308B8000205A0D9F4DAF275E6
:02009900A0FFC6
:1000A1007800E84400600A790175A000E4F309D8FA
:1000B100FC7800E84400600C7900900001E4F0A3B2
:0400C100D8FCD9FA94
:0D006C0075815F120176E582600302006974
:04017600758200226C
:00000001FF
