:040000000200743254
:01000B0032C2
:0100130032BA
:01001B0032B2
:030023000201A136
:03002B000201CD02
:200030000000E2FBEAF2802C0000E0FBEAF08024E6B50202EBF62200E2B50202EBF22200B6
:20005000E0B50202EBF02230F6E0A88220F5D3EAC6F582228B822230F6E6A88220F5D980C6
:01007000CFC0
:2000CD00753000753100753400753500753600753700753800753900753A00753C00753DB1
:1700ED0000753E00753F007540009000327440F0900033F002007154
:030071000201D7B2
:20010400D2AFD2ACD2ADC2002275C80075CB4C75CA0075CD4C75CC00D2CA22758920758DC4
:20012400FD758BFDD28E759850C2992285829910990280FB22222222227538007436B538D3
:20014400028012E5389001EF93F582120130E53804F53880E7753800227538007407B53884
:20016400028012E53890022593F582120130E53804F53880E77538002275821B1201307578
:20018400825B12013075821B12013075825B12013075823212013075824A020130C0E0C011
:2001A40082C083C001C0D075D000309811900033E0F9A799D200900033E904F0C298D0D0BF
:2001C400D001D083D082D0E032C0E0E53404F534D0E03275816012010412011F12017D12BA
:0701E400013D12015D80FEE8
:2001EF004D6963726F205669727475616C2D5220436F70797269676874203230323620424B
:1D020F006169626861762042686174746163687279610D0A000052454144590D0A39
:0600A300E478FFF6D8FD31
:200081007900E94400601B7A0090022C780175A000E493F2A308B8000205A0D9F4DAF275F7
:0200A100A0FFBE
:2000A9007800E84400600A790175A000E4F309D8FC7800E84400600C7900900001E4F0A355
:0400C900D8FCD9FA8C
:0D00740075815F1201EBE5826003020071EF
:0401EB0075820022F7
:00000001FF
