:0400000002006C325C
:01000B0032C2
:0100130032BA
:01001B0032B2
:0300230002015384
:200028000000E2FBEAF2802C0000E0FBEAF08024E6B50202EBF62200E2B50202EBF22200BE
:20004800E0B50202EBF02230F6E0A88220F5D3EAC6F582228B822230F6E6A88220F5D980CE
:01006800CFC8
:0600C50075400002006915
:030069000201771A
:2000CB00D2AF758160753000753100753240753340753400753500753600753700753800CD
:2000EB00753900753A00753C00753D00753E00753F002222758920758DFD758BFDD28E759B
:20010B009850D2AC228582993099FD22753801E533B5320280F9A9328799E53870FC0532E1
:20012B002222222275824412011075826512011075826212011075827512011075826712D4
:20014B00011075820A020110C0E0C000C0D075D000309809E533F8A6990533C298109902DD
:1A016B008003753800D0D0D000D0E0321200CB1200FF75824112011080F837
:06009B00E478FFF6D8FD39
:200079007900E94400601B7A00900189780175A000E493F2A308B8000205A0D9F4DAF275A3
:02009900A0FFC6
:2000A1007800E84400600A790175A000E4F309D8FC7800E84400600C7900900001E4F0A35D
:0400C100D8FCD9FA94
:0D006C0075815F120185E582600302006965
:04018500758200225D
:00000001FF
