:0400000002006C325C
:01000B0032C2
:0100130032BA
:01001B0032B2
:0300230002015483
:100028000000E2FBEAF2802C0000E0FBEAF080240A
:10003800E6B50202EBF62200E2B50202EBF222007C
:10004800E0B50202EBF02230F6E0A88220F5D3EA10
:10005800C6F582228B822230F6E6A88220F5D98066
:01006800CFC8
:0600C50075400002006915
:030069000201751C
:1000CB00D2AF758160753000753100753240753374
:1000DB00407534007535007536007537007538007E
:1000EB00753900753A00753C00753D00753E00751D
:1000FB003F002222758920758DFD758BFDD28EC236
:10010B0099C298759850D2AC228582992275380184
:10011B00E533B5320280F9A9328799E53870FC05D1
:10012B003222222222758244120114758265120139
:10013B00147582621201147582751201147582672F
:10014B0012011475820A020114C0E0C000C0D07500
:10015B00D000309809E533F8A6990533C298109969
:10016B00028000D0D0D000D0E0321200CB1200FFC2
:08017B0075824112011480F8A5
:06009B00E478FFF6D8FD39
:100079007900E94400601B7A00900187780175A036
:1000890000E493F2A308B8000205A0D9F4DAF275E6
:02009900A0FFC6
:1000A1007800E84400600A790175A000E4F309D8FA
:1000B100FC7800E84400600C7900900001E4F0A3B2
:0400C100D8FCD9FA94
:0D006C0075815F120183E582600302006967
:04018300758200225F
:00000001FF
