:040000000200743254
:01000B0032C2
:0100130032BA
:01001B0032B2
:03002300021002C6
:03002B0002103888
:100030000000E2FBEAF2802C0000E0FBEAF0802402
:10004000E6B50202EBF62200E2B50202EBF2220074
:10005000E0B50202EBF02230F6E0A88220F5D3EA08
:10006000C6F582228B822230F6E6A88220F5D9805E
:01007000CFC0
:1000CD00753000753400753500753600753700755F
:1000DD003800753900753A00753B00753C00753D6B
:1000ED0000E4F53EF53FF540F560F571F573757576
:1000FD0030F57AF57BF57CF57DF57EF57F788076AC
:08010D00007888760002007101
:0300710002162D47
:10011500D2AFD2ACD2ADC205C200C202C203D20672
:10012500753340753240753100D207C208C210C21E
:1001350009C211C2017574FF7572FF75370022750A
:10014500C80075CB4C75CA0075CD4C75CC00D2CAAC
:1001550022758920758DFD758BFDD28E759850D2CF
:1001650099C298227531007532407533407530005B
:1001750074E02530400EE5302440F87600E5300483
:10018500F53080EC753000D21122D310AF01C3C019
:10019500D07E007F00C3EE957AEF957B50147CFBF3
:1001A5007D041CBCFF011DEC4D70F70EBE00E60F73
:1001B50080E3D0D092AF22AF823099FD8F99C2995A
:1001C500223000FD30030675827F0201BCA932870B
:1001D50007BF0D0E75820A1201BC75820D1201BC96
:1001E500D207A93287820201BCC2AC3098FD85993D
:1001F50038C298D2AC22753000740CB5300280122A
:10020500E530901A3493F5821201BCE53004F530DF
:1002150080E77530007423B5300122E530901A0B64
:1002250093F5821201BCE53004F53080E822753083
:10023500007436B530028012E5309019CE93F58200
:100245001201BCE53004F53080E7753000227530C9
:10025500007407B530028012E530901A0493F582D8
:100265001201BCE53004F53080E7753000227530A9
:10027500007406B530028012E530901A2E93F5828F
:100285001201BCE53004F53080E775300022753089
:1002950000E57A457B70157582301201BC75820DBB
:1002A5001201BC75820A1201BCD20422E57A457B93
:1002B500603AE5302475F975190A751A00857A8250
:1002C500857B83C00112197DAE82D00174302EF773
:1002D50075190A751A00857A82857B831219378507
:1002E500827A85837BE53004F53080C0857982127A
:1002F50001BC8578821201BC8577821201BC8576A6
:10030500821201BC8575821201BC75820D1201BC79
:1003150075820A1201BCD204757500757600757771
:100325000075780075790022E57A457B602DAF7AF6
:1003350074805FF538E538235401F538E5386008F1
:100345007582311201BC80067582301201BCE57AD6
:1003550025E0F57AE57B33F57B80CD75820D1201BD
:10036500BC75820A0201BC75821B1201BC758263D1
:100375000201BC75300074C525304012E530901A75
:100385005193F5821201BCE53004F53080E87530F3
:100395000075821B1201BC75825B1201BC7582332C
:1003A5001201BC7582351201BC75826D0201BC75E6
:1003B500300074C725304012E530901A8C93F582D1
:1003C5001201BCE53004F53080E875300022753047
:1003D5000074DD25304012E530901AC593F5821280
:1003E50001BCE53004F53080E8753000228534190C
:1003F500751A0090003212196085823E85833F751B
:1004050082441201BC7582751201BC75827212019B
:10041500BC7582611201BC7582741201BC7582695A
:100425001201BC75826F1201BC75826E1201BC751A
:1004350082281201BC75826D1201BC75827312018E
:10044500BC7582291201BC7582201201BCE53E45AE
:100455003F702675823C1201BC7582201201BC7565
:1004650082351201BC7582301201BC75820D1201F4
:10047500BC75820A1201BC8009853E7A853F7B12D4
:10048500029375821B1201BC75825B1201BC7582D9
:10049500301201BC75826D0201BCAF8275300074EB
:1004A500F82530401DE53025E02460F9E7B5070B58
:1004B500E53025E0246004F9878222E53004F53033
:1004C50080DDD2027537027582FF22AF827530005A
:1004D50074F825304027E53025E02460F9E7B507B5
:1004E5000122E53025E02460F9E7700AE53025E0D2
:1004F5002460F8A60722E53004F53080D375300076
:10050500D20275370322AF8275300074F82530406A
:1005150016E53025E02460F9E7B507048530822229
:10052500E53004F53080E4D2027537027582FF228A
:1005350012050B85823B30020122E53B25E0246054
:1005450004F8A61822AF8275300074F825304025CE
:10055500E53025E02460F9E7B50713E53025E0240B
:1005650060F87600E53025E0246004F87600E53093
:1005750004F53080D5D20275370222E5312440F9E1
:100585008707BF20028008BF7F0A1210AA80EC12DD
:1005950010AA80E7753900E5312440F98707BF20A7
:1005A500028026E5312440F98707BF0D02801AE550
:1005B5003975F00AA4F539E5312440F9E724D0AEC0
:1005C500392EF5391210AA80CE85398222E53124DB
:1005D50040F98707BF20028008BF7F0A1210AA8052
:1005E500EC1210AA80E7E4F57AF57BE5312440F9B1
:1005F5008707BF200122E5312440F98707BF0D0198
:1006050022857A19857B1A90000A12196085827AEB
:1006150085837BE5312440F987077E00EF24D0FFF1
:10062500EE34FFFEEF257AF57AEE357BF57B121079
:10063500AA80B8E53C2488F8A63D1210B3120580BF
:10064500858235E53C2488F8A6350210B31205806D
:10065500858235120580858236E53C2488F8A63DDD
:100665001210B3E53C2488F8A6351210B3E53C24F6
:1006750088F8A6360210B3120580858235120580EA
:1006850085823612058085827EE53C2488F8A63D64
:100695001210B3E53C2488F8A6351210B3E53C24C6
:1006A50088F8A6361210B3E53C2488F8A67E021019
:1006B500B312058085823512058085823612058044
:1006C50085827E12058085827FE53C2488F8A63DDB
:1006D5001210B3E53C2488F8A6351210B3E53C2486
:1006E50088F8A6361210B3E53C2488F8A67E1210C9
:1006F500B3E53C2488F8A67F0210B3E53C2488F9CD
:10070500873D1210B3E53C2488F987351210B3E50F
:100715003C2488F987361210B3E53C2488F9877E96
:100725001210B3E53C2488F9877F753800753900C8
:10073500AF35BF5802801CBFDF02800ABFFC0280B4
:1007450023BFFD4A802F853638857E39E4F57AF555
:100755007B8040853638753900853E7A853F7B85B7
:100765007E7F802F853638753900857C7A857D7B3F
:10077500857E7F801E85368212049F858238857E20
:100785008212049F858239E4F57AF57B8005D202D1
:10079500753707AF3DBF10028045BF60028025BF9A
:1007A5007E0302086BBFB8030208C6BFC2028058A9
:1007B500BFC4030208A1BFD0028076BFD8030208D8
:1007C500EB020910AE387F00AC397D00EC2EFEED52
:1007D5003FFFEE257AF57AEF357BF57B020915E5C6
:1007E500397011AF38FEE57AC39FF57AE57B9EF542
:1007F5007B020915AE387F00AC397D00EEC39CF550
:100805007AEF9DF57B020915E5397017853819F5DD
:100815001A857A82857B8312196085827A85837B26
:100825000209158538F0E539A4F57A85F07B0209CA
:1008350015E5387008D202753701020915E53970DA
:1008450017853819F51A857A82857B8312193785BC
:10085500827A85837B0209158539F0E53884F57A36
:10086500757B00020915E5387008D202753701025B
:100875000915E5397017853819F51A857A82857B4A
:100885008312197D85827A85837B0209158539F066
:10089500E53884AFF08F7A757B008074E538700792
:1008A500D2027537078069E539700BAE38FFEE5215
:1008B5007AEF527B805AE5395538F57A757B008099
:1008C5004FE5387007D2027537078044E539700B5C
:1008D500AE38FFEE427AEF427B8035E5394538F593
:1008E5007A757B00802AE5387007D2027537078054
:1008F5001FE539700BAE38FFEE527AEF527B801050
:10090500E5395538F57A757B008005D202753707CC
:10091500AF7FBF58028005BFFC108007857A3E85F2
:100925007B3F22857A7C857B7D22857A38853818C0
:10093500857F82020535E53C2488F9873D1210B391
:10094500E53C2488F987351210B3E53C2488F987FE
:1009550036AF3DBF1302804DBFC5030209ECBFF2A0
:10096500028003020A3074FDB535178536821204FC
:100975009F858238E538F4F5388538188536820242
:1009850005357458B5350BE53EF4F53EE53FF4F510
:100995003F2274FCB53502800122E57CF4F57CE547
:1009A5007DF4F57D2274FDB5351785368212049FD9
:1009B500858238E53804F53885381885368202058C
:1009C500357458B5350EAE3EAF3F74012EF53EE495
:1009D5003FF53F2274FCB53557AE7CAF7D74012ED3
:1009E500F57CE43FF57D2274FDB535178536821219
:1009F500049F858238E53814F538853818853682A0
:100A05000205357458B5350FAE3EAF3FEE24FFF500
:100A15003EEF34FFF53F2274FCB53514AE7CAF7D57
:100A2500EE24FFF57CEF34FFF57D22D20275370702
:100A350022E53C2488F8A63D0210B3C210D2040278
:100A450003F2D208C21075300074B02530400EE5AF
:100A5500302488F87600E53004F53080EC753000F8
:100A6500020378300107C208D2100203D32212050F
:100A75008085823585357A757B00020293C208D25E
:100A8500010203B4E53C2488F8A63D1210B3E53C09
:100A95002488F8761E1210B3E53C2488F8761E12D9
:100AA50010B3E53C2488F876E11210B3E53C2488C0
:100AB500F876FF0210B375300074B02530400EE5AE
:100AC500302488F87600E53004F53080EC75300088
:100AD500C201221210B3E53C2488F987351210B300
:100AE500E53C2488F98736AF35BF58028035BFFC11
:100AF5005E7582781201BC7582571201BC75824FF2
:100B05001201BC7582521201BC7582441201BC757A
:100B1500823A1201BC7582201201BC857C7A857DE2
:100B25007B80397582761201BC7582411201BC75D4
:100B350082431201BC7582431201BC75823A1201CF
:100B4500BC7582201201BC853E7A853F7B800D8570
:100B5500358212049FAF828F7A757B00AF36BF0E48
:100B650002801EBFCE02800DBFD0028005BFDE27EA
:100B7500800602029302032D857A388538820201A8
:100B8500BCAE7AAF7BC007C006120293D006D00771
:100B95008E7A8F7B02032DD202753707221205D27A
:100BA500E53C2488F8A63D1210B3E53C2488F9AF4E
:100BB5007AA707857B7A757B001210B3E53C2488FC
:100BC500F9AF7AA7070210B31210B31210B3E53CC0
:100BD5002488F987078F7A757B00857A7B757A007B
:100BE500E53C14F53CE53C2488F987077E00EF4297
:100BF5007AEE427B02018F1210B3E53C2488F98717
:100C0500358535820204D01210B3E53C2488F98776
:100C1500351210B3E53C2488F987368536188535B5
:100C2500820205351210B3E53C2488F98735121088
:100C3500B3E53C2488F987361210B3E53C2488F9DE
:100C4500877E1210B3E53C2488F9877FAF35BF58FE
:100C5500028017BFFC02801ABFFD1F853682120471
:100C65009FAF828F7A757B008016853E7A853F7BA4
:100C7500800E857C7A857D7B8006D20275370722BA
:100C8500857EF005F0800BE57A25E0F57AE57B3386
:100C9500F57BD5F0F2AF7FBF58028005BFFC108011
:100CA50007857A3E857B3F22857A7C857B7D2285FB
:100CB5007A38853818857F82120535221210B3E5FA
:100CC5003C2488F987351210B3E53C2488F987362A
:100CD5001210B3E53C2488F9877E1210B3E53C2455
:100CE50088F9877FAF35BF58028017BFFC02802087
:100CF500BFFD2B85368212049FAF828F7A757B00EC
:100D05008022853E7A853F7B857E7F85367E801471
:100D1500857C7A857D7B857E7F85367E8006D202C1
:100D250075370722857EF005F0800BC3E57B13F54B
:100D35007BE57A13F57AD5F0F2AF7FBF58028005CF
:100D4500BFFC108007857A3E857B3F22857A7C85AE
:100D55007B7D22857A38853818857F821205352274
:100D65001210B3E53C2488F987351210B3E53C240D
:100D750088F987361210B3E53C2488F9877E74829A
:100D8500B53539AF36BF8802800FBF8902800FBFE6
:100D95008A02800FBF8B16800F858038801585905D
:100DA50038801085A038800B85B0388006D2027552
:100DB500370222853818857E820205357421B535BE
:100DC5003A857E8212049F858238AF36BF880280BD
:100DD5000FBF8902800FBF8A02800FBF8B16800F5D
:100DE500853880801585389080108538A0800B85E2
:100DF50038B08006D2027537022222AF36BF88028C
:100E0500800FBF8902800EBF8A02800DBF8B1280C2
:100E15000C857E8022857E9022857EA022857EB0EF
:100E250022D202753702221210B3E53C2488F987D5
:100E3500351210B3E53C2488F987368535821204CE
:100E45009F8582388538188536820205351210B39C
:100E5500853C3B74B02574505574B0253B404FE537
:100E65003B042488F98707BF8D3DAF3B74022F24CF
:100E750088F98707BF1E30AF3B74032F2488F98795
:100E850007BF1E23AF3B74042F2488F98707BFE1F2
:100E950016AF3B74052F2488F98707BFFF09AF3BC1
:100EA50074052FF5748007E53B04F53B80ABE53C05
:100EB5002488F987351210B3E53C2488F987361262
:100EC50010B3E53C2488F9877E85358212049F8519
:100ED5008238857E8212049F858239AF36BF7702BC
:100EE500800FBF8302802CBF8B028036BFC7448032
:100EF50011C3E53995385005757301803B7573004D
:100F05008036C3E53895395005757301802A7573A8
:100F1500008025E539B53805757301801B757300AB
:100F25008016E539B538028005757301800A757339
:100F3500008005D202753702E573700385743C2283
:100F4500753800E53824FA500A1210B3E53804F56F
:100F55003880F07574FF757300221210B3E53C24D8
:100F650088F987351210B3E53C2488F987361210C5
:100F7500B3E53C2488F9877EAF36BF58028017BF9A
:100F8500FC02801ABFFD1F857E8212049FAF828FEF
:100F95007A757B008016853E7A853F7B800E857C41
:100FA5007A857D7B8006D202753707227458B53560
:100FB50007857A3E857B3F2274FCB53507857A7CAB
:100FC500857B7D22D202753702221210B31210B32F
:100FD500E53C2488F987078F7A757B00857A7B75D0
:100FE5007A00E53C14F53CE53C2488F987077E004A
:100FF500EF427AEE427B857A3E857B3F22C0E0C098
:10100500D075D008309827AF99BF7F15C374409528
:1010150033500A2007071533E533F87600D20380ED
:1010250009E533F8A699C2030533D200C298D0D09A
:10103500D0E032C0E0E53404F534D0E032C2ACC2D1
:10104500AF753D0075300074E02530400EE5302465
:1010550040F87600E53004F53080EC7530007535E4
:1010650000753600753000C2007533407532407525
:10107500310030081E75821B1201BC75825B12019E
:10108500BC7582331201BC7582351201BC75826D47
:101095001201BCD2AFD2AC22A9328707BF0D03D251
:1010A5000522C20522E53104F53153311F22E53C05
:1010B50004F53C533C3F2220112D30030920070243
:1010C5001532C20380040532C207C3E5329440508D
:1010D500020532C3745F95325003753240C3745FA5
:1010E50095335003753340C2112202036CC2AF75AC
:1010F500A61E75A6E180FE300405120273C20430F7
:10110500025F1201FBC2ACC2AF753D0075300074C1
:10111500E02530400EE5302440F87600E53004F552
:101125003080EC753000753500753600753000C2BD
:101135000075334075324075310030081E75821BCD
:101145001201BC75825B1201BC7582331201BC753C
:1011550082351201BC75826D1201BCD2AFD2ACC210
:1011650002C20022C20522300513C2AC121235128A
:1011750011951213B0753D00120169D2AC2212030C
:101185006C1202330202537581D712011502015602
:101195002009012230080122AF3DBF0003021232AF
:1011A500BF17028068BF7002801EBF7502802FBF07
:1011B500AA02800ABFB8028048BFC36F800FC2AFC2
:1011C50075A61E75A6E180FE12036C80601205806F
:1011D50085823585357A757B00120293804FD2085A
:1011E500C21075300074B02530400EE5302488F803
:1011F5007600E53004F53080EC7530001203788018
:101205002C300129C208D2101203D380207530007A
:1012150074B02530400EE5302488F87600E53004BA
:10122500F53080EC753000C2018002D202C209227D
:1012350012058085823D200803D20922AF3DBF00FB
:101245000122BF10030212E1BF13030212E4BF140F
:10125500030212E1BF15030212E4BF250302132C9A
:10126500BF3B0302132CBF60030212E1BF640302FC
:1012750012E7BF65030212EABF7D028062BF7E02EC
:10128500805ABF84028058BF8D03021351BF92025A
:10129500804DBF96028055BFA60302139DBFA802CD
:1012A5008040BFB0028038BFB5028036BFB802802B
:1012B5002BBFC2028026BFC4028021BFC502801F8A
:1012C500BFD0028017BFD4028012BFD802800DBFE5
:1012D500F202800BBFFA0280130213AD0206B602BA
:1012E500065202067CC208D2010203B41205D2E5F9
:1012F5003C2488F8A63DE53C04F53C533C3FE53CE1
:101305002488F9AF7AA707857B7A757B00E53C04CD
:10131500F53C533C3FE53C2488F9AF7AA707E53C0B
:1013250004F53C533C3F22E53C2488F8A63DE53CCA
:1013350004F53C533C3F120580858235E53C248805
:10134500F8A635E53C04F53C533C3F22E53C2488B2
:10135500F8A63DE53C04F53C533C3FE53C2488F8C4
:10136500761EE53C04F53C533C3FE53C2488F87685
:101375001EE53C04F53C533C3FE53C2488F876E10A
:10138500E53C04F53C533C3FE53C2488F876FFE515
:101395003C04F53C533C3F22E53C2488F8A63DE55A
:1013A5003C04F53C533C3F22D20222201001227519
:1013B5003C00C2CA753400120144201003021627EE
:1013C500E53C2488F9873DAF3DBF1003021451BFAA
:1013D5001303021457BF1403021587BF2503021513
:1013E5008DBF60028066BF64030215CDBF7D030219
:1013F50015D2BF7E028055BF8402805CBF96030272
:10140500153FBFA60302160EBFA80302157BBFB08A
:10141500030215A4BFB503021604BFB802802DBF91
:10142500C2028028BFC4028023BFC5028024BFD06A
:10143500028019BFD403021581BFD802800EBFF206
:1014450002800FBFFA0302160902161512070002E1
:10145500161512093B021615E53C04F53C533C3FB5
:10146500E53C2488F98735E53C04F53C533C3FE5EC
:101475003C2488F98736AF35BF58028035BFFC5EFE
:101485007582781201BC7582571201BC75824F12A4
:1014950001BC7582521201BC7582441201BC758271
:1014A5003A1201BC7582201201BC857C7A857D7B50
:1014B50080397582761201BC7582411201BC758234
:1014C500431201BC7582431201BC75823A1201BCFC
:1014D5007582201201BC853E7A853F7B800D85355E
:1014E5008212049FAF828F7A757B00AF36BF0E02E2
:1014F5008027BFCE028010BFD0028005BFDE3380BB
:101505000C12029302161512032D021615857A3850
:101515008538821201BC021615AE7AAF7BC007C0B2
:1015250006120293D006D0078E7A8F7B12032D0206
:101535001615D202753707021615E53C04F53C531E
:101545003C3FE53C04F53C533C3FE53C2488F987AA
:10155500078F7A757B00857A7B757A00E53C14F5F3
:101565003CE53C2488F987077E00EF427AEE427B12
:1015750012018F021615120E52021615120CC10217
:101585001615120C29021615E53C04F53C533C3F93
:10159500E53C2488F987358535821204D08071E5CC
:1015A5003C04F53C533C3FE53C2488F98735E53C54
:1015B50004F53C533C3FE53C2488F98736853618CD
:1015C5008535821205358048120D658043E53C045A
:1015D500F53C533C3FE53C2488F98735E53C04F56B
:1015E5003C533C3FE53C2488F98736853582120417
:1015F5009F85823885381885368212053580111207
:101605000F5F800C120FCF8007C210D2041203F2B5
:10161500300204C210C204E53C04F53C533C3F02D1
:1016250013BFC2CA753C00227581D712011512017C
:101635005612036C1202331202531201C6A93287E5
:1016450007BF0D04D2058002C205200503021894C8
:10165500C2AC12058085823D200805D2090217E635
:10166500AF3DBF00030217E6BF1003021707BF1304
:101675000302170DBF1403021707BF150302170D49
:10168500BF2503021760BF3B03021760BF6003025B
:101695001707BF6403021713BF6503021719BF7D40
:1016A500028065BF7E02805ABF8402805BBF8D03C6
:1016B500021786BF92028050BF96028061BFA603C3
:1016C5000217D3BFA8028046BFB002803BBFB50258
:1016D500803CBFB802802BBFC2028026BFC40280F7
:1016E50021BFC5028022BFD0028017BFD40280125D
:1016F500BFD802800DBFF202800EBFFA02801F0222
:1017050017E41206B60217E61206520217E612068B
:101715007C0217E6C208D2011203B40217E61205CD
:10172500D2E53C2488F8A63DE53C04F53C533C3F16
:10173500E53C2488F9AF7AA707857B7A757B00E5B8
:101745003C04F53C533C3FE53C2488F9AF7AA707B8
:10175500E53C04F53C533C3F0217E6E53C2488F89C
:10176500A63DE53C04F53C533C3F1205808582359A
:10177500E53C2488F8A635E53C04F53C533C3F8020
:1017850060E53C2488F8A63DE53C04F53C533C3F28
:10179500E53C2488F8761EE53C04F53C533C3FE5E2
:1017A5003C2488F8761EE53C04F53C533C3FE53C7B
:1017B5002488F876E1E53C04F53C533C3FE53C24C0
:1017C50088F876FFE53C04F53C533C3F8013E53C47
:1017D5002488F8A63DE53C04F53C533C3F8002D205
:1017E50002200903021889300803021889AF3DBF9A
:1017F5000003021887BF17028068BF7002801EBFF2
:101805007502802FBFAA02800ABFB8028048BFC3F5
:101815006F800FC2AF75A61E75A6E180FE12036C20
:10182500806012058085823585357A757B001202C8
:1018350093804FD208C21075300074B02530400E29
:10184500E5302488F87600E53004F53080EC753015
:1018550000120378802C300129C208D2101203D35C
:10186500802075300074B02530400EE5302488F8AE
:101875007600E53004F53080EC753000C201800259
:10188500D202C2091213B0753D00120169D2AC2013
:10189500112D3003092007021532C20380040532D9
:1018A500C207C3E532944050020532C3745F9532D6
:1018B5005003753240C3745F95335003753340C28E
:1018C50011300405120273C20430025F1201FBC21B
:1018D500ACC2AF753D0075300074E02530400EE5B3
:1018E500302440F87600E53004F53080EC753000A2
:1018F500753500753600753000C200753340753298
:101905004075310030081E75821B1201BC75825B63
:101915001201BC7582331201BC7582351201BC758A
:10192500826D1201BCD2AFD2ACC202C200C20502A6
:02193500163F5B
:1019CE004D6963726F205669727475616C2D522069
:1019DE00436F7079726967687420323032362042F4
:1019EE0061696268617620426861747461636872CD
:1019FE0079610D0A000052656164790D0A496E76AF
:101A0E00616C6964206F7220496E636F6D706C65D6
:101A1E00746520436F6D6D616E640D0A1B5B306DD6
:101A2E00446F6E650D0A1B5B33316D4552524F523A
:101A3E00212050726F6772616D204572617365640B
:101A4E000D0A001B5B33326D4C6976652070726F28
:101A5E006772616D6D696E6720656E61626C65643B
:101A6E002E0D0A456E74657220636F6465206C6975
:101A7E006E65206279206C696E652E0D0A001B5B07
:101A8E00306D50726F6772616D206C6F616465644A
:101A9E0020696E206D656D6F72792C2075736520CF
:101AAE002772756E2720666F722065786563757470
:101ABE00696F6E2E0D0A001B5B33336D45786563BF
:101ACE007574696E67207363726970742061742017
:0A1ADE0072756E74696D650D0A00E3
:101937007A10E4FBFCE58225E0F582E58333F58345
:10194700EB33FBEC33FCEB9519F5F0EC951A4006FD
:09195700FCABF0438201DADD2251
:0600A300E478FFF6D8FD31
:100081007900E94400601B7A00901AE8780175A0B4
:1000910000E493F2A308B8000205A0D9F4DAF275DE
:0200A100A0FFBE
:10196000E5828519F0A4C582C0F0851AF0A4D0F0F4
:1019700025F0C5838519F0A42583F58322E5194553
:101980001A60467A01E51925E0F519E51A33401287
:10199000F51AE5829519E583951A40030A80E6C396
:1019A000E51A13F51AE51913F519C3E5829519F52A
:1019B000F0E583951A4005F58385F082C3E51A1397
:0A19C000F51AE51913F519DAE12212
:1000A9007800E84400600A790175A000E4F309D8F2
:1000B900FC7800E84400600C7900900001E4F0A3AA
:0400C900D8FCD9FA8C
:0D0074007581D71219CAE582600302007180
:0419CA007582002200
:00000001FF
