:040000000200743254
:01000B0032C2
:0100130032BA
:01001B0032B2
:030023000201A433
:03002B000201C20D
:100030000000E2FBEAF2802C0000E0FBEAF0802402
:10004000E6B50202EBF62200E2B50202EBF2220074
:10005000E0B50202EBF02230F6E0A88220F5D3EA08
:10006000C6F582228B822230F6E6A88220F5D9805E
:01007000CFC0
:1000CD007530007531007534007535007536007565
:1000DD003700753800753900753A00753C00753D6F
:0D00ED0000753E00753F0075400002007177
:030071000201CCBD
:1000FA00D2AFD2ACD2ADC200753340753240227550
:10010A00C80075CB4C75CA0075CD4C75CC00D2CAE7
:10011A0022758920758DFD758BFDD28E759850C21A
:10012A00992285829910990280FB223000FDA9321A
:10013A008707BF0D0C75820A12012C75820D1201F8
:10014A002CA932878212012C0532222222227538EA
:10015A00007436B538028012E5389001FD93F582B5
:10016A0012012CE53804F53880E775380022753815
:10017A00007407B538028012E53890023393F5828D
:10018A0012012CE53804F53880E7753800227582AB
:10019A001B12012C75826302012CC0E0C000C0D082
:1001AA0075D00030980BE533F8A6990533D200C212
:1001BA0098D0D0D000D0E032C0E0E53404F534D095
:1001CA00E0327581601200FA12011B1201981201C5
:1001DA0058120178120135C3746095335003753390
:0F01EA0040C3746095325003753240C20080E507
:1001FD004D6963726F205669727475616C2D522052
:10020D00436F7079726967687420323032362042DC
:10021D0061696268617620426861747461636872B5
:10022D0079610D0A000052454144590D0A496E7617
:0A023D00616C696420434D440D0A12
:0600A300E478FFF6D8FD31
:100081007900E94400601B7A00900247780175A06D
:1000910000E493F2A308B8000205A0D9F4DAF275DE
:0200A100A0FFBE
:1000A9007800E84400600A790175A000E4F309D8F2
:1000B900FC7800E84400600C7900900001E4F0A3AA
:0400C900D8FCD9FA8C
:0D00740075815F1201F9E5826003020071E1
:0401F90075820022E9
:00000001FF
