:040000000200743254
:01000B0032C2
:0100130032BA
:01001B0032B2
:030023000212E9DD
:03002B0002131F9E
:100030000000E2FBEAF2802C0000E0FBEAF0802402
:10004000E6B50202EBF62200E2B50202EBF2220074
:10005000E0B50202EBF02230F6E0A88220F5D3EA08
:10006000C6F582228B822230F6E6A88220F5D9805E
:01007000CFC0
:1000CD00753000753400753500753600753700755F
:1000DD003800753900753A00753B00753C00753D6B
:1000ED0000E4F53EF53FF540F560F571F573757576
:1000FD0030F57AF57BF57CF57DF57EF57F788076AC
:08010D00007888760002007101
:030071000219E988
:10011500D2AFD2ACD2ADC205C200C202C2037533A2
:1001250040753240753100D207C208C210C209C2FB
:1001350011C2017574FF7572FF753700C20622750D
:10014500C80075CB4C75CA0075CD4C75CC00D2CAAC
:1001550022758920758DFD758BFDD28E759850D2CF
:1001650099C298227531007532407533407530005B
:1001750074E02530400EE5302440F87600E5300483
:10018500F53080EC753000D21122D310AF01C3C019
:10019500D07E007F00C3EE957AEF957B50147CFBF3
:1001A5007D041CBCFF011DEC4D70F70EBE00E60F73
:1001B50080E3D0D092AF22AF823099FD8F99C2995A
:1001C500223000FD30030675827F0201BCA932870B
:1001D50007BF0D0E75820A1201BC75820D1201BC96
:1001E500D207A93287820201BCC2AC3098FD85993D
:1001F50038C298D2AC22753000740CB5300280122A
:10020500E530901E5E93F5821201BCE53004F530B1
:1002150080E77530007423B5300122E530901E3536
:1002250093F5821201BCE53004F53080E822753083
:10023500007436B530028012E530901DF893F582D2
:100245001201BCE53004F53080E7753000227530C9
:10025500007407B530028012E530901E2E93F582AA
:100265001201BCE53004F53080E7753000227530A9
:10027500007406B530028012E530901E5893F58261
:100285001201BCE53004F53080E775300022753089
:1002950000E57A457B70157582301201BC75820DBB
:1002A5001201BC75820A1201BCD20422E57A457B93
:1002B500603AE5302475F975190A751A00857A8250
:1002C500857B83C001121DA7AE82D00174302EF745
:1002D50075190A751A00857A82857B83121D6185D9
:1002E500827A85837BE53004F53080C0857982127A
:1002F50001BC8578821201BC8577821201BC8576A6
:10030500821201BC8575821201BC75820D1201BC79
:1003150075820A1201BCD204757500757600757771
:100325000075780075790022E57A457B602DAF7AF6
:1003350074805FF538E538235401F538E5386008F1
:100345007582311201BC80067582301201BCE57AD6
:1003550025E0F57AE57B33F57B80CD75820D1201BD
:10036500BC75820A0201BC75821B1201BC758263D1
:100375000201BC75300074C525304012E530901E71
:100385007B93F5821201BCE53004F53080E87530C9
:100395000075821B1201BC75825B1201BC7582332C
:1003A5001201BC7582351201BC75826D0201BC75E6
:1003B500300074C725304012E530901EB693F582A3
:1003C5001201BCE53004F53080E875300022753047
:1003D5000074DD25304012E530901EEF93F5821252
:1003E50001BCE53004F53080E8753000228534190C
:1003F500751A00900032121D8A85823E85833F75ED
:1004050082441201BC7582751201BC75827212019B
:10041500BC7582611201BC7582741201BC7582695A
:100425001201BC75826F1201BC75826E1201BC751A
:1004350082281201BC75826D1201BC75827312018E
:10044500BC7582291201BC7582201201BCE53E45AE
:100455003F702675823C1201BC7582201201BC7565
:1004650082351201BC7582301201BC75820D1201F4
:10047500BC75820A1201BC8009853E7A853F7B12D4
:10048500029375821B1201BC75825B1201BC7582D9
:10049500301201BC75826D0201BC753000740CB55B
:1004A50030028012E530901E5E93F5821201BCE5A4
:1004B5003004F53080E7AF37BF0102801FBF02026D
:1004C5008047BF0302806FBF0403020568BF0803AE
:1004D500020594BFFF030205C00205EA75823012CA
:1004E50001BC7582781201BC7582301201BC75821F
:1004F500311201BC7582431201BC7582441201BCE4
:100505007582431201BC0205EA7582301201BC7581
:1005150082781201BC7582301201BC7582321201DB
:10052500BC7582431201BC7582441201BC758243BD
:100535001201BC0205EA7582301201BC758278127F
:1005450001BC7582301201BC7582331201BC758203
:10055500431201BC7582441201BC7582431201BC71
:100565000205EA7582301201BC7582781201BC75EC
:1005750082301201BC7582341201BC7582431201AE
:10058500BC7582441201BC7582431201BC8056754C
:1005950082301201BC7582781201BC75823012015D
:1005A500BC7582411201BC7582431201BC7582443F
:1005B5001201BC7582431201BC802A75823012017A
:1005C500BC7582781201BC7582461201BC758246E3
:1005D5001201BC7582431201BC7582441201BC75BF
:1005E50082431201BC75820D1201BC75820A02019B
:1005F500BC75300074F82530401AE53025E02460DC
:10060500F87600E53025E0246004F87600E530044E
:10061500F53080E075300074FC2530401AE5302552
:10062500E02480F87600E53025E0248004F87600A3
:10063500E53004F53080E07573007574FF75710061
:1006450075720022AF8275300074F82530401DE5C3
:100655003025E02460F9E7B5070BE53025E0246097
:1006650004F9878222E53004F53080DDD202753742
:10067500027582FF22AF8275300074F8253040275D
:10068500E53025E02460F9E7B5070122E53025E0EE
:100695002460F9E7700AE53025E02460F8A6072212
:1006A500E53004F53080D3753000D202753703226A
:1006B500AF8275300074F825304016E53025E0240A
:1006C50060F9E7B5070485308222E53004F530800E
:1006D500E4D2027537027582FF221206B585823B88
:1006E50030020122E53B25E0246004F8A61822AF7C
:1006F5008275300074FC25304031E53025E02480DA
:10070500F9E7B5070122E53025E02480F9E7701403
:10071500E53025E02480F8A607E53025E0248004AF
:10072500F8A61922E53004F53080C9D202753702E2
:1007350022AF8275300074FC2530401DE53025E080
:100745002480F9E7B5070BE53025E0248004F98717
:100755008222E53004F53080DDD2027537047582DA
:10076500FF22E5312440F98707BF20028008BF7FBB
:100775000A12139180EC12139180E7753900E53167
:100785002440F98707BF20028026E5312440F987F8
:1007950007BF0D02801AE53975F00AA4F539E53170
:1007A5002440F9E724D0AE392EF53912139180CEC5
:1007B50085398222E5312440F98707BF2002800868
:1007C500BF7F0A12139180EC12139180E7E4F57A4A
:1007D500F57BE5312440F98707BF200122E5312467
:1007E50040F98707BF0D0122857A19857B1A90008C
:1007F5000A121D8A85827A85837BE5312440F98733
:10080500077E00EF24D0FFEE34FFFEEF257AF57A60
:10081500EE357BF57B12139180B8E53C2488F8A66C
:100825003D12139A120767858235E53C2488F8A6A0
:100835003502139A12076785823512076785823656
:10084500E53C2488F8A63D12139AE53C2488F8A6D1
:100855003512139AE53C2488F8A63602139A120736
:100865006785823512076785823612076785827E1E
:10087500E53C2488F8A63D12139AE53C2488F8A6A1
:100885003512139AE53C2488F8A63612139AE53CEE
:100895002488F8A67E02139A120767858235120707
:1008A5006785823612076785827E12076785827F94
:1008B500E53C2488F8A63D12139AE53C2488F8A661
:1008C5003512139AE53C2488F8A63612139AE53CAE
:1008D5002488F8A67E12139AE53C2488F8A67F02A0
:1008E500139AE53C2488F8A63D12139AE53C248822
:1008F500F8761E12139AE53C2488F8761E12139A90
:10090500E53C2488F876E112139AE53C2488F876CC
:10091500FF02139AE53C2488F8A63D12139AE53C9C
:100925002488F8764012139AE53C2488F8762E122E
:10093500139AE53C2488F8764012139AE53C2488FE
:10094500F8762E02139AE53C2488F9873D12139A0E
:10095500E53C2488F9873512139AE53C2488F98704
:100965003612139AE53C2488F9877E12139AE53CE2
:100975002488F9877F753800753900AF35BF58026F
:10098500801CBFDF02800ABFFC028023BFFD4A80B6
:100995002F853638857E39E4F57AF57B80408536B6
:1009A50038753900853E7A853F7B857E7F802F852A
:1009B5003638753900857C7A857D7B857E7F801EFE
:1009C500853682120649858238857E8212064985DA
:1009D5008239E4F57AF57B8005D202753707AF3D9C
:1009E500BF10028045BF60028025BF7E03020AB6A4
:1009F500BFB803020B11BFC2028058BFC403020A6D
:100A0500ECBFD0028076BFD803020B36020B5BAE7B
:100A1500387F00AC397D00EC2EFEED3FFFEE257AE8
:100A2500F57AEF357BF57B020B60E5397011AF3850
:100A3500FEE57AC39FF57AE57B9EF57B020B60AEFA
:100A4500387F00AC397D00EEC39CF57AEF9DF57BD0
:100A5500020B60E5397017853819F51A857A828594
:100A65007B83121D8A85827A85837B020B6085389C
:100A7500F0E539A4F57A85F07B020B60E53870085E
:100A8500D202753701020B60E5397017853819F503
:100A95001A857A82857B83121D6185827A85837B9F
:100AA500020B608539F0E53884F57A757B00020B19
:100AB50060E5387008D202753701020B60E53970C0
:100AC50017853819F51A857A82857B83121DA785C6
:100AD500827A85837B020B608539F0E53884AFF037
:100AE5008F7A757B008074E5387007D202753707F9
:100AF5008069E539700BAE38FFEE527AEF527B8094
:100B05005AE5395538F57A757B00804FE538700719
:100B1500D2027537078044E539700BAE38FFEE42D7
:100B25007AEF427B8035E5394538F57A757B00806B
:100B35002AE5387007D202753707801FE539700B33
:100B4500AE38FFEE527AEF527B8010E5395538F515
:100B55007A757B008005D202753707AF7FBF5802D3
:100B65008005BFFC108007857A3E857B3F22857A0C
:100B75007C857B7D22857A38853818857F820206BB
:100B8500DFE53C2488F9873D12139AE53C2488F972
:100B9500873512139AE53C2488F98736AF3DBF1394
:100BA50002804DBFC503020C37BFF2028003020C61
:100BB5007B74FDB53517853682120649858238E581
:100BC50038F4F5388538188536820206DF7458B54D
:100BD500350BE53EF4F53EE53FF4F53F2274FCB5F3
:100BE5003502800122E57CF4F57CE57DF4F57D2276
:100BF50074FDB53517853682120649858238E53884
:100C050004F5388538188536820206DF7458B535FF
:100C15000EAE3EAF3F74012EF53EE43FF53F227424
:100C2500FCB53557AE7CAF7D74012EF57CE43FF500
:100C35007D2274FDB53517853682120649858238C1
:100C4500E53814F5388538188536820206DF74587C
:100C5500B5350FAE3EAF3FEE24FFF53EEF34FFF561
:100C65003F2274FCB53514AE7CAF7DEE24FFF57CD8
:100C7500EF34FFF57D22D20275370722E53C248843
:100C8500F8A63D02139AC210D2040203F2D208C29A
:100C95001075300074B02530400EE5302488F876A4
:100CA50000E53004F53080EC753000020378300142
:100CB50007C208D2100203D3221207678582358541
:100CC500357A757B00020293C208D2010203B4751E
:100CD500300074B02530400EE5302488F87600E504
:100CE5003004F53080EC753000C2012212139AE50C
:100CF5003C2488F9873512139AE53C2488F9873610
:100D0500AF35BF58028035BFFC5E7582781201BCD5
:100D15007582571201BC75824F1201BC7582521241
:100D250001BC7582441201BC75823A1201BC758200
:100D3500201201BC857C7A857D7B8039758276128F
:100D450001BC7582411201BC7582431201BC7582DA
:100D5500431201BC75823A1201BC7582201201BC96
:100D6500853E7A853F7B800D853582120649AF82A7
:100D75008F7A757B00AF36BF0E02801EBFCE028014
:100D85000DBFD0028005BFDE278006020293020355
:100D95002D857A388538820201BCAE7AAF7BC007D3
:100DA500C006120293D006D0078E7A8F7B02032DE0
:100DB500D202753707221207B9E53C2488F8A63D0B
:100DC50012139AE53C2488F9AF7AA707857B7A75D3
:100DD5007B0012139AE53C2488F9AF7AA707021322
:100DE5009A12139A12139AE53C2488F987078F7A89
:100DF500757B00857A7B757A00E53C14F53CE53C0E
:100E05002488F987077E00EF427AEE427B02018F44
:100E150012139AE53C2488F9873585358202067ACE
:100E250012139AE53C2488F9873512139AE53C2478
:100E350088F987368536188535820206DF12139ABA
:100E4500E53C2488F9873512139AE53C2488F9870F
:100E55003612139AE53C2488F9877E12139AE53CED
:100E65002488F9877FAF35BF58028017BFFC028001
:100E75001ABFFD1F853682120649AF828F7A757BB0
:100E8500008016853E7A853F7B800E857C7A857D40
:100E95007B8006D20275370722857EF005F0800B30
:100EA500E57A25E0F57AE57B33F57BD5F0F2AF7F82
:100EB500BF58028005BFFC108007857A3E857B3FC1
:100EC50022857A7C857B7D22857A38853818857FD1
:100ED500821206DF2212139AE53C2488F98735121F
:100EE500139AE53C2488F9873612139AE53C248841
:100EF500F9877E12139AE53C2488F9877FAF35BFC1
:100F050058028017BFFC028020BFFD2B8536821258
:100F15000649AF828F7A757B008022853E7A853FB0
:100F25007B857E7F85367E8014857C7A857D7B8575
:100F35007E7F85367E8006D20275370722857EF054
:100F450005F0800BC3E57B13F57BE57A13F57AD5C0
:100F5500F0F2AF7FBF58028005BFFC108007857A8D
:100F65003E857B3F22857A7C857B7D22857A388507
:100F75003818857F821206DF2212139AE53C2488F1
:100F8500F9873512139AE53C2488F9873612139AA6
:100F9500E53C2488F9877E7482B53539AF36BF883C
:100FA50002800FBF8902800FBF8A02800FBF8B1698
:100FB500800F8580388015859038801085A0388011
:100FC5000B85B0388006D202753702228538188520
:100FD5007E820206DF7421B5353A857E8212064986
:100FE500858238AF36BF8802800FBF8902800FBF68
:100FF5008A02800FBF8B16800F8538808015853853
:101005009080108538A0800B8538B08006D2027597
:1010150037022222AF36BF8802800FBF8902800EB9
:10102500BF8A02800DBF8B12800C857E8022857E53
:101035009022857EA022857EB022D20275370222BB
:1010450012139AE53C2488F9873512139AE53C2456
:1010550088F987368535821206498582388538189C
:101065008536820206DF12139A853C3B74B02574DF
:10107500505174B0253B404BE53B042488F9870764
:10108500BF8D39AF3B74022F2488F98707BF1E2C0B
:10109500AF3B74032F2488F98707BF1E1FAF3B742E
:1010A500042F2488F98707BFE112AF3B74052F246D
:1010B50088F98707BFFF05853B748007E53B04F585
:1010C5003B80AFE53C2488F9873512139AE53C242B
:1010D50088F9873612139AE53C2488F9877E853589
:1010E50082120649858238857E82120649858239B3
:1010F500AF36BF7702800FBF8302802CBF8B028083
:1011050036BFC7448011C3E539953850057573015D
:10111500803B7573008036C3E53895395005757386
:1011250001802A7573008025E539B5380575730189
:10113500801B7573008016E539B538028005757317
:1011450001800A7573008005D202753702E5737058
:101155000385743C22753800E53824FA500A1213C9
:101165009AE53804F53880F07574FF75730022121E
:10117500139A30060122E53C2488F98735E53514B4
:10118500F535853571853C72D20622857138E5388D
:10119500600ED206E53814F53885387185723C2223
:1011A500757100757200C206753800E53824FA506D
:1011B5000A12139AE53804F53880F0222006012238
:1011C500853C3B74B0253B404DE53B042488F987BD
:1011D50007BF2E3BAF3B74022F2488F98707BF401A
:1011E5002EAF3B74032F2488F98707BF2E21AF3B11
:1011F50074042F2488F98707BF4014AF3B74052F6B
:101205002488F98707BF2E07757100853B3C22E5C9
:101215003B04F53B80AD2212139AE53C2488F987FF
:101225003512139AE53C2488F9873612139AE53C62
:101235002488F9877EAF36BF58028017BFFC02802D
:101245001ABFFD1F857E82120649AF828F7A757B94
:10125500008016853E7A853F7B800E857C7A857D6C
:101265007B8006D202753707227458B53507857A13
:101275003E857B3F2274FCB53507857A7C857B7D71
:1012850022D2027537022212139A12139AE53C24D0
:1012950088F987078F7A757B00857A7B757A00E5F3
:1012A5003C14F53CE53C2488F987077E00EF427A3B
:1012B500EE427B857A3E857B3F2212139AE53C24DC
:1012C50088F98735853C198535820206F412139A0B
:1012D500E53C2488F98735853582120736858238BD
:1012E50085383C22C0E0C0D075D008309827AF992A
:1012F500BF7F15C374409533500A2007071533E5A2
:1013050033F87600D2038009E533F8A699C20305C0
:1013150033D200C298D0D0D0E032C0E0E53404F535
:1013250034D0E032C2ACC2AF753D0075300074E018
:101335002530400EE5302440F87600E53004F530E0
:1013450080EC753000753500753600753000C200CB
:1013550075334075324075310030081E75821B1299
:1013650001BC75825B1201BC7582331201BC7582AA
:10137500351201BC75826D1201BCD2AFD2AC22A967
:10138500328707BF0D03D20522C20522E53104F5D8
:101395003153311F22E53C04F53C533C3F222011DB
:1013A5002D3003092007021532C20380040532C21D
:1013B50007C3E532944050020532C3745F9532503D
:1013C50003753240C3745F95335003753340C211C2
:1013D5002202036CC2AF75A61E75A6E180FE30041D
:1013E50016120273C204E4F53EF53FF57CF57DF572
:1013F50035F536F57EF57F30026212049F1201FB4A
:10140500C2ACC2AF753D0075300074E02530400EAA
:10141500E5302440F87600E53004F53080EC753091
:1014250000753500753600753000C200753340759E
:10143500324075310030081E75821B1201BC758261
:101445005B1201BC7582331201BC7582351201BC79
:1014550075826D1201BCD2AFD2ACC202C20022C2EB
:101465000522300513C2AC12153012149012170361
:10147500753D00120169D2AC2212036C12023302CF
:1014850002537581D7120115020156200901223038
:10149500080122AF3DBF000302152DBF170280686A
:1014A500BF7002801EBF7502802FBFAA02800ABFCF
:1014B500B8028048BFC36F800FC2AF75A61E75A660
:1014C500E180FE12036C80601207678582358535E1
:1014D5007A757B00120293804FD208C210753000D6
:1014E50074B02530400EE5302488F87600E53004E8
:1014F500F53080EC753000120378802C300129C25C
:1015050008D2101203D3802075300074B025304006
:101515000EE5302488F87600E53004F53080EC756A
:101525003000C2018002D202C209221207678582F9
:101535003D200803D20922AF3DBF000122BF1003A1
:101545000215E8BF13030215EBBF14030215E8BF2C
:101555001503021633BF2503021633BF2E030216E9
:10156500B4BF3B03021633BF60030215E8BF640333
:101575000215EEBF65030215F1BF7D028068BF7ECF
:10158500028060BF8402805EBF89030216A4BF8DFE
:1015950003021658BF9202804DBF96028055BFA622
:1015A500030216A4BFA8028040BFB0028038BFB5B1
:1015B500028036BFB802802BBFC2028026BFC4029C
:1015C5008021BFC502801FBFD0028017BFD4028013
:1015D50012BFD802800DBFF202800BBFFA02801342
:1015E50002170002089D020839020863C208D201E9
:1015F5000203B41207B9E53C2488F8A63DE53C048E
:10160500F53C533C3FE53C2488F9AF7AA707857B39
:101615007A757B00E53C04F53C533C3FE53C24886A
:10162500F9AF7AA707E53C04F53C533C3F22E53C7E
:101635002488F8A63DE53C04F53C533C3F1207677A
:10164500858235E53C2488F8A635E53C04F53C5310
:101655003C3F22E53C2488F8A63DE53C04F53C5397
:101665003C3FE53C2488F8761EE53C04F53C533CBC
:101675003FE53C2488F8761EE53C04F53C533C3FA9
:10168500E53C2488F876E1E53C04F53C533C3FE530
:101695003C2488F876FFE53C04F53C533C3F22E5C5
:1016A5003C2488F8A63DE53C04F53C533C3F22E547
:1016B5003C2488F8A63DE53C04F53C533C3FE53C1D
:1016C5002488F87640E53C04F53C533C3FE53C2452
:1016D50088F8762EE53C04F53C533C3FE53C2488F0
:1016E500F87640E53C04F53C533C3FE53C2488F85E
:1016F500762EE53C04F53C533C3F22D202222010D5
:101705000122753C00C2CA75340012014420100341
:101715000219E1E53C2488F9873DAF3DBF1003027E
:1017250017C2BF13030217C8BF14030218F8BF1569
:10173500030219AEBF25030218FEBF2E0302198747
:10174500BF3B03021991BF60028072BF6403021997
:1017550040BF7D03021946BF7E028061BF840280BF
:1017650068BF890302198CBF9203021982BF9603D1
:101775000218B0BFA6030219C8BFA8030218ECBF20
:10178500B003021916BFB503021978BFB802802D40
:10179500BFC2028028BFC4028023BFC5028024BF08
:1017A500D0028019BFD4030218F2BFD802800EBF41
:1017B500F202800FBFFA0302197D0219CF12094BFD
:1017C5000219CF120B860219CFE53C04F53C533CB8
:1017D5003FE53C2488F98735E53C04F53C533C3F1F
:1017E500E53C2488F98736AF35BF58028035BFFC04
:1017F5005E7582781201BC7582571201BC75824FE5
:101805001201BC7582521201BC7582441201BC756D
:10181500823A1201BC7582201201BC857C7A857DD5
:101825007B80397582761201BC7582411201BC75C7
:1018350082431201BC7582431201BC75823A1201C2
:10184500BC7582201201BC853E7A853F7B800D8563
:101855003582120649AF828F7A757B00AF36BF0E8F
:10186500028027BFCE028010BFD0028005BFDE33C5
:10187500800C1202930219CF12032D0219CF857A1B
:10188500388538821201BC0219CFAE7AAF7BC0070A
:10189500C006120293D006D0078E7A8F7B12032DD5
:1018A5000219CFD2027537070219CFE53C04F53C82
:1018B500533C3FE53C04F53C533C3FE53C2488F96B
:1018C50087078F7A757B00857A7B757A00E53C14EE
:1018D500F53CE53C2488F987077E00EF427AEE4225
:1018E5007B12018F0219CF12106B0219CF120EDA7B
:1018F5000219CF120E420219CFE53C04F53C533CC8
:101905003FE53C2488F9873585358212067A021928
:10191500CFE53C04F53C533C3FE53C2488F987354D
:10192500E53C04F53C533C3FE53C2488F987368586
:1019350036188535821206DF0219CF120F7E02197D
:10194500CFE53C04F53C533C3FE53C2488F987351D
:10195500E53C04F53C533C3FE53C2488F987368556
:1019650035821206498582388538188536821206F1
:10197500DF805712121C805212128C804D12117486
:10198500804812119080431211C1803EE53C04F558
:101995003C533C3FE53C2488F98735853582120761
:1019A5003685823885383C8021E53C04F53C533C3E
:1019B5003FE53C2488F98735853C19853582120633
:1019C500F48007C210D2041203F2300204C210C21E
:1019D50004E53C04F53C533C3F021712C2CA753C72
:1019E500000205F67581D712011512015612036C16
:1019F5001202331202531201C6A9328707BF0D0422
:101A0500D2058002C205200503021CAAC2AC12073A
:101A15006785823D200805D209021BFCAF3DBF004A
:101A250003021BFCBF1003021ACFBF1303021AD512
:101A3500BF1403021ACFBF1503021B28BF250302DB
:101A45001B28BF2E03021BADBF3B03021B28BF6033
:101A550003021ACFBF6403021ADBBF6503021AE152
:101A6500BF7D02806BBF7E028060BF84028061BF44
:101A75008903021B9CBF8D03021B4FBF920280503E
:101A8500BF96028061BFA603021B9CBFA8028046C9
:101A9500BFB002803BBFB502803CBFB802802BBF00
:101AA500C2028026BFC4028021BFC5028022BFD0EA
:101AB500028017BFD4028012BFD802800DBFF20288
:101AC500800EBFFA02801F021BFA12089D021BFC42
:101AD500120839021BFC120863021BFCC208D20162
:101AE5001203B4021BFC1207B9E53C2488F8A63D95
:101AF500E53C04F53C533C3FE53C2488F9AF7AA727
:101B050007857B7A757B00E53C04F53C533C3FE556
:101B15003C2488F9AF7AA707E53C04F53C533C3FE4
:101B2500021BFCE53C2488F8A63DE53C04F53C5346
:101B35003C3F120767858235E53C2488F8A635E5E4
:101B45003C04F53C533C3F021BFCE53C2488F8A6CD
:101B55003DE53C04F53C533C3FE53C2488F8761EC6
:101B6500E53C04F53C533C3FE53C2488F8761EE50E
:101B75003C04F53C533C3FE53C2488F876E1E53CE4
:101B850004F53C533C3FE53C2488F876FFE53C04EE
:101B9500F53C533C3F8060E53C2488F8A63DE53C98
:101BA50004F53C533C3F804FE53C2488F8A63DE5D1
:101BB5003C04F53C533C3FE53C2488F87640E53C45
:101BC50004F53C533C3FE53C2488F8762EE53C047F
:101BD500F53C533C3FE53C2488F87640E53C04F56C
:101BE5003C533C3FE53C2488F8762EE53C04F53C27
:101BF500533C3F8002D202200903021C9F30080398
:101C0500021C9FAF3DBF0003021C9DBF17028068E9
:101C1500BF7002801EBF7502802FBFAA02800ABF57
:101C2500B8028048BFC36F800FC2AF75A61E75A6E8
:101C3500E180FE12036C8060120767858235853569
:101C45007A757B00120293804FD208C2107530005E
:101C550074B02530400EE5302488F87600E5300470
:101C6500F53080EC753000120378802C300129C2E4
:101C750008D2101203D3802075300074B02530408F
:101C85000EE5302488F87600E53004F53080EC75F3
:101C95003000C2018002D202C209121703753D004D
:101CA500120169D2AC20112D30030920070215322B
:101CB500C20380040532C207C3E5329440500205D1
:101CC50032C3745F95325003753240C3745F9533E8
:101CD5005003753340C211300416120273C204E476
:101CE500F53EF53FF57CF57DF535F536F57EF57F69
:101CF50030026212049F1201FBC2ACC2AF753D00F7
:101D050075300074E02530400EE5302440F876004B
:101D1500E53004F53080EC7530007535007536001A
:101D2500753000C20075334075324075310030089A
:101D35001E75821B1201BC75825B1201BC75823354
:101D45001201BC7582351201BC75826D1201BCD2BF
:0C1D5500AFD2ACC202C200C2050219FBF2
:101DF8004D6963726F205669727475616C2D52203B
:101E0800436F7079726967687420323032362042C5
:101E1800616962686176204268617474616368729E
:101E280079610D0A000052656164790D0A496E7680
:101E3800616C6964206F7220496E636F6D706C65A8
:101E4800746520436F6D6D616E640D0A1B5B306DA8
:101E5800446F6E650D0A1B5B33316D4552524F520C
:101E6800212050726F6772616D20457261736564DD
:101E78000D0A001B5B33326D4C6976652070726FFA
:101E88006772616D6D696E6720656E61626C65640D
:101E98002E0D0A456E74657220636F6465206C6947
:101EA8006E65206279206C696E652E0D0A001B5BD9
:101EB800306D50726F6772616D206C6F616465641C
:101EC80020696E206D656D6F72792C2075736520A1
:101ED8002772756E2720666F722065786563757442
:101EE800696F6E2E0D0A001B5B33336D4578656391
:101EF8007574696E672073637269707420617420E9
:0A1F080072756E74696D650D0A00B4
:101D61007A10E4FBFCE58225E0F582E58333F58317
:101D7100EB33FBEC33FCEB9519F5F0EC951A4006CF
:091D8100FCABF0438201DADD2223
:0600A300E478FFF6D8FD31
:100081007900E94400601B7A00901F12780175A085
:1000910000E493F2A308B8000205A0D9F4DAF275DE
:0200A100A0FFBE
:101D8A00E5828519F0A4C582C0F0851AF0A4D0F0C6
:101D9A0025F0C5838519F0A42583F58322E5194525
:101DAA001A60467A01E51925E0F519E51A33401259
:101DBA00F51AE5829519E583951A40030A80E6C368
:101DCA00E51A13F51AE51913F519C3E5829519F5FC
:101DDA00F0E583951A4005F58385F082C3E51A1369
:0A1DEA00F51AE51913F519DAE122E4
:1000A9007800E84400600A790175A000E4F309D8F2
:1000B900FC7800E84400600C7900900001E4F0A3AA
:0400C900D8FCD9FA8C
:0D0074007581D7121DF4E582600302007152
:041DF40075820022D2
:00000001FF
