:0300000002004CAF
:100008000000E2FBEAF2802C0000E0FBEAF080242A
:10001800E6B50202EBF62200E2B50202EBF222009C
:10002800E0B50202EBF02230F6E0A88220F5D3EA30
:10003800C6F582228B822230F6E6A88220F5D98086
:01004800CFE8
:0600A50075400002004955
:0300490002012190
:1000AB007581607530007531007532407533407560
:1000BB0034007535007536007537007538007539A5
:1000CB0000753A00753C00753D00753E00753F00AC
:1000DB002222758920758DFD758BFDD28E759850FA
:1000EB00C2ACC2992285829910990280FB222222EE
:1000FB0022227582441200F07582651200F075821F
:10010B00621200F07582751200F07582671200F0B2
:10011B0075820A0200F01200AB1200DD75824112EB
:04012B0000F080F868
:06007B00E478FFF6D8FD59
:100059007900E94400601B7A00900133780175A0AA
:1000690000E493F2A308B8000205A0D9F4DAF27506
:02007900A0FFE6
:100081007800E84400600A790175A000E4F309D81A
:10009100FC7800E84400600C7900900001E4F0A3D2
:0400A100D8FCD9FAB4
:0D004C0075815F12012FE5826003020049FB
:04012F0075820022B3
:00000001FF
