:0400000002006C325C
:01000B0032C2
:0100130032BA
:01001B0032B2
:0300230002014790
:200028000000E2FBEAF2802C0000E0FBEAF08024E6B50202EBF62200E2B50202EBF22200BE
:20004800E0B50202EBF02230F6E0A88220F5D3EAC6F582228B822230F6E6A88220F5D980CE
:01006800CFC8
:2000C500753000753100753400753500753600753700753800753900753A00753C00753DB9
:1700E50000753E00753F007540009000327440F0900033F002006964
:0300690002017819
:2000FC00D2AFD2ACC2002222758920758DFD758BFDD28E759850C29922AF822000FDD2006B
:20011C008F9922222222227582441201157582651201157582621201157582751201157580
:20013C00826712011575820A020115C0E0C082C083C001C0D075D0001099028002C200309F
:20015C00980F900033E0F9A799859938E904F0C298D0D0D001D083D082D0E0327581601213
:0D017C0000FC12010475824112011580F88B
:06009B00E478FFF6D8FD39
:200079007900E94400601B7A0090018D780175A000E493F2A308B8000205A0D9F4DAF2759F
:02009900A0FFC6
:2000A1007800E84400600A790175A000E4F309D8FC7800E84400600C7900900001E4F0A35D
:0400C100D8FCD9FA94
:0D006C0075815F120189E582600302006961
:040189007582002259
:00000001FF
