:040000000200743254
:01000B0032C2
:0100130032BA
:01001B0032B2
:03002300020902CD
:03002B0002093D8A
:100030000000E2FBEAF2802C0000E0FBEAF0802402
:10004000E6B50202EBF62200E2B50202EBF2220074
:10005000E0B50202EBF02230F6E0A88220F5D3EA08
:10006000C6F582228B822230F6E6A88220F5D9805E
:01007000CFC0
:1000CD00753000753400753500753600753700755F
:1000DD003800753900753A00753C00753D00E4F542
:1000ED003EF53FF54078F8763078FDF608F678FF66
:0500FD00760002007115
:03007100020EDD9F
:10010200D2AFD2ACD2ADC205C200C201C202C2039A
:10011200D2067533407532407531002275C80075BC
:10012200CB4C75CA0075CD4C75CC00D2CA227589EC
:1001320020758DFD758BFDD28E759850C299C2982F
:100142002285829910990280FB223000FD3003063D
:1001520075827F020143A9328707BF0D0C75820A9F
:1001620012014375820D120143A9328782020143B3
:10017200C2AC3098FD859938C298D2AC2275300055
:10018200740CB530028012E5309010A793F58212FC
:100192000143E53004F53080E77530007423B53053
:1001A200028012E53090106593F582120143E5302A
:1001B20004F53080E77530007446B5300122E53031
:1001C2009010E693F582120143E53004F53080E8A1
:1001D200227530007436B530028012E53090102856
:1001E20093F582120143E53004F53080E775300063
:1001F200227530007407B530028012E53090105E2F
:1002020093F582120143E53004F53080E775300042
:1002120022753000740FB530028012E530901092D2
:1002220093F582120143E53004F53080E775300022
:10023200227530007406B530028012E5309010A1AC
:1002420093F582120143E53004F53080E775300002
:100252002278FDA63E08A63F75300078FDE60846E6
:10026200701575823012014375820D120143758239
:100272000A120143D2042278FDE608466041E530C5
:1002820024F8F975080A75090078FD8682088683C4
:10029200C001120FD7AE82D00174302EF775080A52
:1002A20075090078FD8682088683120F91E58285A2
:1002B20083F078FDF608A6F0E53004F53080B878D2
:1002C200FC868212014378FB868212014378FA8609
:1002D2008212014378F9868212014378F8868212EB
:1002E200014375820D12014375820A120143D20441
:1002F20078F8760078F9760078FA760078FB76005E
:1003020078FC76002275821B12014375826302011A
:100312004375821B12014375825B1201437582325F
:1003220012014375824A12014375821B1201437501
:10033200825B1201437582480201437530007419D1
:10034200B530028012E53090115693F582120143C6
:10035200E53004F53080E775300022E5312440F9BC
:100362008707BF20028008BF7F0A12098D80EC1226
:10037200098D80E7753800E5312440F98707BF20F1
:10038200028041E5312440F98707BF0D028035E53F
:10039200312440F9873912098DE5312440F9870764
:1003A20053073FEF623912098DE539C313FFE53177
:1003B2002440F9E76FF53985393DE53804F53812FF
:1003C200098D80B3E53824FE5003753D0122E531E5
:1003D2002440F98707BF20028008BF7F0A12098DD7
:1003E20080EC12098D80E7753900E5312440F987E8
:1003F20007BF20028026E5312440F98707BF0D029E
:10040200801AE53975F00AA4F539E5312440F9E797
:1004120024D0AE392EF53912098D80CE853982224B
:10042200C2AF75A61E75A6E112021380FE1203D09A
:1004320085823574F825355003D2022275821B124B
:10044200014375825B120143758233120143AF355A
:1004520074302FF58212014375826D120143D2046A
:100462002275300010010280187419B5300122E59E
:10047200309010CC93F582120143E53004F53080C0
:10048200E8D2017418B5300122E5309010B393F52B
:1004920082120143E53004F53080E81203D08582F0
:1004A200351203D0858236E535700AE5367006F5D9
:1004B2003EF53F8027E5356013E536700FAF35FE18
:1004C200EF253EF53EEE353FF53F8010AE357F001D
:1004D200AC367D00EC2EF53EED3FF53F02025312A5
:1004E20003D08582351203D0858236E535700AE560
:1004F200367006F53EF53F8029E5356014E5367025
:1005020010AF35FEE53EC39FF53EE53F9EF53F80C9
:1005120011AE357F00AC367D00EEC39CF53EEF9DFB
:10052200F53F0202531203D08582351203D0858231
:1005320036E5357007E5367003D20222E535601ADA
:10054200E5367016853508F509853E82853F8312AA
:100552000F9185823E85833F800B8536F0E5358499
:10056200F53E753F000202531203D0858235120315
:10057200D0858236E535601AE5367016853508F580
:1005820009853E82853F83120FBA85823E85833F6D
:10059200800B8535F0E536A4F53E85F03F02025327
:1005A200E5312440F98707BF2002800DBF7F14E5A3
:1005B2003104F53153311F80E7E53104F531533110
:1005C2001F80DDE4F53EF53FE5312440F98707BFA2
:1005D20020028043E5312440F98707BF0D028037AE
:1005E200853E08853F0990000A120FBA85823E8532
:1005F200833FE5312440F987077E00EF24D0FFEEE8
:1006020034FFFEEF253EF53EEE353FF53FE5310482
:10061200F53153311F80B1D204221203D0858235C5
:100622001203D0858236AF36BF8402803EBF880275
:10063200802DBF8902800ABF8A02800BBF8B338064
:1006420012853590D2042230060302033D8535A07F
:10065200D2042230060302033D8535B0D204223093
:10066200060302033D853580D2042278FFA635D2E7
:100672000422D202221203D08582351203D085824F
:1006820036AF35BF84028048BF88028034BF8902FA
:10069200800ABF8A02800CBF8B3E8016859038D2BA
:1006A20004803830060512033D803085A038D2041C
:1006B200802930060512033D802185B038D204809E
:1006C2001A30060512033D8012858038D204800B51
:1006D20078FF8638D2048003D20222AF36BF1402DA
:1006E200800ABF1602803CBF244E8040753008E568
:1006F200306024E5385480F539E539235401F53961
:10070200AF3974302FF582120143E53825E0F53810
:10071200E53014F53080D875820D12014375820AD6
:1007220002014385383E753F000202533006030240
:10073200033D853882020143D202C204221205A27D
:10074200E53EF4F53EE53FF4F53F0202531203D0D5
:100752008582351203D0858236E53670178535F0ED
:1007620005F0800BC3E53F13F53FE53E13F53ED59B
:10077200F0F280138535F005F0E5368002C313D51B
:10078200F0FBF53E753F000202531203D08582351D
:100792001203D0858236E53670178535F005F08074
:1007A2000BE53E25E0F53EE53F33F53FD5F0F2801F
:1007B2001FAE367F008535F005F085063E85073F82
:1007C200800BE53E25E0F53EE53F33F53FD5F0F2FF
:1007D2000202531203D08582351203D0858236E598
:1007E200357007E5367003D20222E535601AE53628
:1007F2007016853508F509853E82853F83120FD72D
:1008020085823E85833F800D8536F0E53584AFF0E5
:100812008F3E753F000202531203D08582351203C8
:10082200D0858236E535600FE536700BAE35FFEECA
:10083200523EEF523F8009E5365535F53E753F0091
:100842000202531203D08582351203D0858236E527
:1008520035600FE536700BAE35FFEE423EEF423F9C
:100862008009E5364535F53E753F00020253120315
:10087200D08582351203D0858236E535600FE536A4
:10088200700BAE35FFEE623EEF623F8009E53665E2
:1008920035F53E753F0002025378FFA63ED2042290
:1008A20078FF863E753F00D20422753000100602A2
:1008B20080347414B530028012E53090114193F502
:1008C20082120143E53004F53080E7753000742967
:1008D200B5300122E53090116F93F582120143E5A4
:1008E2003004F53080E8D2067413B5300122E530C9
:1008F20090112D93F582120143E53004F53080E822
:10090200C0E0C007C000C0D075D000309824AF99B5
:10091200BF7F12C37440953350071533E533F87621
:1009220000D2038009E533F8A699C2030533D20049
:10093200C298D0D0D000D007D0E032C0E0E5340475
:10094200F534D0E032C2ACC2AF75300074E025306D
:10095200400EE5302440F87600E53004F53080ECB6
:10096200753D00753500753600753000C201C20054
:10097200753340753240753100D2AFD2AC22A93204
:100982008707BF0D03D20522C20522E53104F531E6
:1009920053311F223003061532C20380020532C3CF
:1009A200E532944050020532C3745F9532500375AC
:1009B2003240C3745F9533500375334022300405CF
:1009C200120233C20430023D12017FC2ACC2AF75C3
:1009D200300074E02530400EE5302440F87600E522
:1009E2003004F53080EC753D0075350075360075C4
:1009F2003000C201C200753340753240753100D2F9
:100A0200AFD2ACC20253311FC20022C2052230054E
:100A120015C2AC12035D120A3BE53104F5315331C4
:100A22001F753D00D2AC221203071201D30201F35B
:100A3200758160120102020130AF3DBF000122BF89
:100A42003C03020E2ABF3E03020DEDBF4003020C1F
:100A520017BF4103020B8EBF4303020D5CBF450368
:100A6200020D17BF4603020B4ABF4B030205A2BF8A
:100A72004D03020253BF4F03020C4FBF5003020B40
:100A8200D4BF5203020E73BF5403020DDDBF5502E1
:100A92008042BF5603020E7ABF5903020DB2BF5BFA
:100AA2000302061CBF5C03020D87BF63028028BFDE
:100AB2006603020E84BF69028054BF6B02804CBF82
:100AC20072028003020EDAC2AF75A61E75A6E1128B
:100AD200021380FE0203131203D085823574F825B7
:100AE200355003D2022275821B12014375825B12BA
:100AF2000143758233120143AF3574302FF58212F0
:100B0200014375826D120143D2042202030775303C
:100B12000010010280187419B5300122E5309010DE
:100B2200CC93F582120143E53004F53080E8D2011E
:100B32007418B5300122E5309010B393F58212019A
:100B420043E53004F53080E81203D0858235120384
:100B5200D0858236E535700AE5367006F53EF53FFA
:100B62008027E5356013E536700FAF35FEEF253E81
:100B7200F53EEE353FF53F8010AE357F00AC367D59
:100B820000EC2EF53EED3FF53F0202531203D085F5
:100B920082351203D0858236E535700AE536700655
:100BA200F53EF53F8029E5356014E5367010AF3526
:100BB200FEE53EC39FF53EE53F9EF53F8011AE3513
:100BC2007F00AC367D00EEC39CF53EEF9DF53F0203
:100BD20002531203D08582351203D0858236E53561
:100BE2007007E5367003D20222E535601AE53670E9
:100BF20016853508F509853E82853F83120F91855A
:100C0200823E85833F800B8536F0E53584F53E755F
:100C12003F000202531203D08582351203D085822F
:100C220036E535601AE5367016853508F509853ED4
:100C320082853F83120FBA85823E85833F800B8572
:100C420035F0E536A4F53E85F03F0202531203D09B
:100C52008582351203D0858236AF35BF8402804843
:100C6200BF88028034BF8902800ABF8A02800CBF1B
:100C72008B3E8016859038D20480383006051203E8
:100C82003D803085A038D204802930060512033D0C
:100C9200802185B038D204801A30060512033D80C7
:100CA20012858038D204800B78FF8638D204800304
:100CB200D20222AF36BF1402800ABF1602803CBFA6
:100CC200244E8040753008E5306024E5385480F5C4
:100CD20039E539235401F539AF3974302FF58212D1
:100CE2000143E53825E0F538E53014F53080D87554
:100CF200820D12014375820A02014385383E753F17
:100D02000002025330060302033D8538820201438A
:100D1200D202C204221203D08582351203D0858208
:100D220036E5357007E5367003D20222E535601AE2
:100D3200E5367016853508F509853E82853F8312B2
:100D42000FD785823E85833F800D8536F0E5358459
:100D5200AFF08F3E753F000202531203D0858235F9
:100D62001203D0858236E535600FE536700BAE355D
:100D7200FFEE523EEF523F8009E5365535F53E759E
:100D82003F000202531203D08582351203D08582BE
:100D920036E535600FE536700BAE35FFEE423EEFBD
:100DA200423F8009E5364535F53E753F0002025364
:100DB2001203D08582351203D0858236E535600F65
:100DC200E536700BAE35FFEE623EEF623F8009E51D
:100DD200366535F53E753F000202531205A2E53E27
:100DE200F4F53EE53FF4F53F0202531203D085824B
:100DF200351203D0858236E53670178535F005F059
:100E0200800BC3E53F13F53FE53E13F53ED5F0F207
:100E120080138535F005F0E5368002C313D5F0FB6B
:100E2200F53E753F000202531203D085823512034C
:100E3200D0858236E53670178535F005F0800BE5F2
:100E42003E25E0F53EE53F33F53FD5F0F2801FAE9B
:100E5200367F008535F005F085063E85073F800B1D
:100E6200E53E25E0F53EE53F33F53FD5F0F20202DF
:100E72005378FFA63ED2042278FF863E753F00D209
:100E8200042275300010060280347414B5300280DA
:100E920012E53090114193F582120143E53004F5D9
:100EA2003080E77530007429B5300122E5309011A9
:100EB2006F93F582120143E53004F53080E8D206E3
:100EC2007413B5300122E53090112D93F582120191
:100ED20043E53004F53080E8D202227581601201C8
:100EE200021201301203071201D31201F312014C54
:100EF200A9328707BF0D04D2058002C2053005154D
:100F0200C2AC12035D120A3BE53104F53153311FC5
:100F1200753D00D2AC3003061532C20380020532A1
:100F2200C3E532944050020532C3745F95325003D8
:100F3200753240C3745F95335003753340300405F6
:100F4200120233C20430023D12017FC2ACC2AF753D
:100F5200300074E02530400EE5302440F87600E59C
:100F62003004F53080EC753D00753500753600753E
:100F72003000C201C200753340753240753100D273
:0F0F8200AFD2ACC20253311FC200C205020EEF44
:101028004D6963726F205669727475616C2D522018
:10103800436F7079726967687420323032362042A3
:10104800616962686176204268617474616368727C
:1010580079610D0A000052656164790D0A496E765E
:10106800616C6964206F7220496E636F6D706C6586
:10107800746520436F6D6D616E640D0A1B5B306D86
:101088003031323334353637383950726F636573DF
:1010980073696E672E2E2E0D0A446F6E650D0A1B3E
:1010A8005B33316D4552524F522120496E66696E4D
:1010B800697465204C6F6F707320456E61626C6552
:1010C800640D0A00496E66696E697465204C6F6F1D
:1010D80070732044697361626C65640D0A0042751F
:1010E8006666657273207765726520636C656172E8
:1010F80065642E204D616368696E65207374617440
:101108006520616E642070726576696F75732072F0
:101118006573756C74732077657265207361766585
:1011280064210D0A004661696C205361666520459B
:101138006E61626C65640D0A004661696C205361DA
:1011480066652044697361626C65640D0A004572C6
:10115800722E204661696C205361666520456E6178
:10116800626C65640D0A005761726E696E672120B2
:1011780054686973206D61792063617573652073A4
:10118800797374656D206661696C7572652E0D0AD8
:011198000056
:100F91007A10E4FBFCE58225E0F582E58333F583F5
:100FA100EB33FBEC33FCEB9508F5F0EC95094006CF
:090FB100FCABF0438201DADD2201
:0600A300E478FFF6D8FD31
:100081007900E94400601B7A00901199780175A00C
:1000910000E493F2A308B8000205A0D9F4DAF275DE
:0200A100A0FFBE
:100FBA00E5828508F0A4C582C0F08509F0A4D0F0C6
:100FCA0025F0C5838508F0A42583F58322E5084525
:100FDA000960467A01E50825E0F508E5093340127B
:100FEA00F509E5829508E583950940030A80E6C379
:100FFA00E50913F509E50813F508C3E5829508F52F
:10100A00F0E58395094005F58385F082C3E5091368
:0A101A00F509E50813F508DAE122F4
:1000A9007800E84400600A790175A000E4F309D8F2
:1000B900FC7800E84400600C7900900001E4F0A3AA
:0400C900D8FCD9FA8C
:0D00740075815F121024E5826003020071A7
:0410240075820022AF
:00000001FF
