:040000000200743254
:01000B0032C2
:0100130032BA
:01001B0032B2
:030023000202874F
:03002B000202A529
:100030000000E2FBEAF2802C0000E0FBEAF0802402
:10004000E6B50202EBF62200E2B50202EBF2220074
:10005000E0B50202EBF02230F6E0A88220F5D3EA08
:10006000C6F582228B822230F6E6A88220F5D9805E
:01007000CFC0
:1000CD00753000753400753500753600753700755F
:1000DD003800753900753A00753C00753D00753E68
:0A00ED0000753F007540000200712D
:030071000202AFD9
:1000F700D2AFD2ACD2ADC200C20175334075324027
:100107007531002275C80075CB4C75CA0075CD4C8A
:1001170075CC00D2CA22758920758DFD758BFDD2ED
:100127008E759850C2992285829910990280FB2278
:100137003000FDA9328707BF0D0C75820A12012E08
:1001470075820D12012EA932878202012EAF82C05D
:100157000712012ED007EF24D6500BBF40005006E0
:10016700EF24D0FF8004758200228F8222E531249C
:1001770040F98707BF0802800ABF20028013BF7FAC
:10018700178007E53104F53180E3E53104F5318067
:10019700DCE53104F53180D5E5312440F98707BF27
:1001A700200122E5312440F98707BF0805E531041E
:1001B700F531E5312440F98707BF0D0122E53124E8
:1001C70040F98739E53104F531E5312440F98707EE
:1001D70053073FEF6239E53104F531E539C313FFC2
:1001E700E5312440F9E76FF53985393DE53104F507
:1001F7003180A522227538007436B538028012E5A1
:100207003890030793F58212012EE53804F53880FC
:10021700E7753800227538007407B538028012E593
:100227003890033D93F58212012EE53804F53880A6
:10023700E775380022753000740FB5300122E530BC
:1002470090035B93F58212012EE53004F53080E8C8
:1002570075821B12012E75826302012EC2AF75A62D
:100267001E75A6E112023C80FBAF3DBF550280061A
:10027700BF720602026302025775824512012E22DF
:10028700C0E0C000C0D075D00030980BE533F8A6A9
:10029700990533D200C298D0D0D000D0E032C0E068
:1002A700E53404F534D0E0327581601200F71201AD
:1002B7001D1202571201FC12021C120137A93287C4
:1002C70007BF0D15C2AC120174120270853D821270
:1002D700012EE53104F531D2AC0532C3745F953395
:1002E7005003753340C3745F95325003753240E550
:0C02F7003124E05003753100C20080BECD
:100307004D6963726F205669727475616C2D522046
:10031700436F7079726967687420323032362042D1
:1003270061696268617620426861747461636872AA
:1003370079610D0A000052454144590D0A496E760C
:10034700616C696420434D440D0A303132333435D2
:100357003637383950726F63657373696E672E2E3F
:070367002E0D0A4F4B0D0A99
:0600A300E478FFF6D8FD31
:100081007900E94400601B7A0090036E780175A045
:1000910000E493F2A308B8000205A0D9F4DAF275DE
:0200A100A0FFBE
:1000A9007800E84400600A790175A000E4F309D8F2
:1000B900FC7800E84400600C7900900001E4F0A3AA
:0400C900D8FCD9FA8C
:0D00740075815F120303E5826003020071D5
:0403030075820022DD
:00000001FF
