:0400000002006C325C
:01000B0032C2
:0100130032BA
:01001B0032B2
:0300230002015582
:100028000000E2FBEAF2802C0000E0FBEAF080240A
:10003800E6B50202EBF62200E2B50202EBF222007C
:10004800E0B50202EBF02230F6E0A88220F5D3EA10
:10005800C6F582228B822230F6E6A88220F5D98066
:01006800CFC8
:0600C50075400002006915
:0300690002017918
:1000CB00D2AF758160753000753100753240753374
:1000DB00407534007535007536007537007538007E
:1000EB00753900753A00753C00753D00753E00751D
:1000FB003F002222758920758DFD758BFDD28E7583
:10010B009850D2ACD2AF228582993099FD227538A6
:10011B0001E533B5320280F9A9328799E53870FCD5
:10012B000532222222227582441201127582651237
:10013B00011275826212011275827512011275829B
:10014B006712011275820A020112C0E0C000C0D012
:10015B0075D000309809E533F8A6990533C298108D
:10016B0099028003753800D0D0D000D0E032120055
:09017B00FF75824112011280F8A7
:06009B00E478FFF6D8FD39
:100079007900E94400601B7A00900188780175A035
:1000890000E493F2A308B8000205A0D9F4DAF275E6
:02009900A0FFC6
:1000A1007800E84400600A790175A000E4F309D8FA
:1000B100FC7800E84400600C7900900001E4F0A3B2
:0400C100D8FCD9FA94
:0D006C0075815F120184E582600302006966
:04018400758200225E
:00000001FF
